{
  "contractName": "VoterERC20",
  "abi": [
    {
      "inputs": [
        {
          "internalType": "string",
          "name": "_name",
          "type": "string"
        },
        {
          "internalType": "string",
          "name": "_symbol",
          "type": "string"
        },
        {
          "internalType": "uint256",
          "name": "_totalSupply",
          "type": "uint256"
        }
      ],
      "stateMutability": "nonpayable",
      "type": "constructor"
    },
    {
      "anonymous": false,
      "inputs": [
        {
          "indexed": true,
          "internalType": "address",
          "name": "owner",
          "type": "address"
        },
        {
          "indexed": true,
          "internalType": "address",
          "name": "spender",
          "type": "address"
        },
        {
          "indexed": false,
          "internalType": "uint256",
          "name": "value",
          "type": "uint256"
        }
      ],
      "name": "Approval",
      "type": "event"
    },
    {
      "anonymous": false,
      "inputs": [
        {
          "indexed": true,
          "internalType": "address",
          "name": "from",
          "type": "address"
        },
        {
          "indexed": true,
          "internalType": "address",
          "name": "to",
          "type": "address"
        },
        {
          "indexed": false,
          "internalType": "uint256",
          "name": "value",
          "type": "uint256"
        }
      ],
      "name": "Transfer",
      "type": "event"
    },
    {
      "inputs": [
        {
          "internalType": "address",
          "name": "owner",
          "type": "address"
        },
        {
          "internalType": "address",
          "name": "spender",
          "type": "address"
        }
      ],
      "name": "allowance",
      "outputs": [
        {
          "internalType": "uint256",
          "name": "",
          "type": "uint256"
        }
      ],
      "stateMutability": "view",
      "type": "function",
      "constant": true
    },
    {
      "inputs": [
        {
          "internalType": "address",
          "name": "spender",
          "type": "address"
        },
        {
          "internalType": "uint256",
          "name": "amount",
          "type": "uint256"
        }
      ],
      "name": "approve",
      "outputs": [
        {
          "internalType": "bool",
          "name": "",
          "type": "bool"
        }
      ],
      "stateMutability": "nonpayable",
      "type": "function"
    },
    {
      "inputs": [
        {
          "internalType": "address",
          "name": "account",
          "type": "address"
        }
      ],
      "name": "balanceOf",
      "outputs": [
        {
          "internalType": "uint256",
          "name": "",
          "type": "uint256"
        }
      ],
      "stateMutability": "view",
      "type": "function",
      "constant": true
    },
    {
      "inputs": [],
      "name": "decimals",
      "outputs": [
        {
          "internalType": "uint8",
          "name": "",
          "type": "uint8"
        }
      ],
      "stateMutability": "view",
      "type": "function",
      "constant": true
    },
    {
      "inputs": [
        {
          "internalType": "address",
          "name": "spender",
          "type": "address"
        },
        {
          "internalType": "uint256",
          "name": "subtractedValue",
          "type": "uint256"
        }
      ],
      "name": "decreaseAllowance",
      "outputs": [
        {
          "internalType": "bool",
          "name": "",
          "type": "bool"
        }
      ],
      "stateMutability": "nonpayable",
      "type": "function"
    },
    {
      "inputs": [
        {
          "internalType": "address",
          "name": "spender",
          "type": "address"
        },
        {
          "internalType": "uint256",
          "name": "addedValue",
          "type": "uint256"
        }
      ],
      "name": "increaseAllowance",
      "outputs": [
        {
          "internalType": "bool",
          "name": "",
          "type": "bool"
        }
      ],
      "stateMutability": "nonpayable",
      "type": "function"
    },
    {
      "inputs": [],
      "name": "name",
      "outputs": [
        {
          "internalType": "string",
          "name": "",
          "type": "string"
        }
      ],
      "stateMutability": "view",
      "type": "function",
      "constant": true
    },
    {
      "inputs": [],
      "name": "symbol",
      "outputs": [
        {
          "internalType": "string",
          "name": "",
          "type": "string"
        }
      ],
      "stateMutability": "view",
      "type": "function",
      "constant": true
    },
    {
      "inputs": [],
      "name": "totalSupply",
      "outputs": [
        {
          "internalType": "uint256",
          "name": "",
          "type": "uint256"
        }
      ],
      "stateMutability": "view",
      "type": "function",
      "constant": true
    },
    {
      "inputs": [
        {
          "internalType": "address",
          "name": "recipient",
          "type": "address"
        },
        {
          "internalType": "uint256",
          "name": "amount",
          "type": "uint256"
        }
      ],
      "name": "transfer",
      "outputs": [
        {
          "internalType": "bool",
          "name": "",
          "type": "bool"
        }
      ],
      "stateMutability": "nonpayable",
      "type": "function"
    },
    {
      "inputs": [
        {
          "internalType": "address",
          "name": "sender",
          "type": "address"
        },
        {
          "internalType": "address",
          "name": "recipient",
          "type": "address"
        },
        {
          "internalType": "uint256",
          "name": "amount",
          "type": "uint256"
        }
      ],
      "name": "transferFrom",
      "outputs": [
        {
          "internalType": "bool",
          "name": "",
          "type": "bool"
        }
      ],
      "stateMutability": "nonpayable",
      "type": "function"
    },
    {
      "inputs": [
        {
          "internalType": "uint256",
          "name": "",
          "type": "uint256"
        }
      ],
      "name": "votings",
      "outputs": [
        {
          "internalType": "enum VoterERC20.VotingStatus",
          "name": "votingStatus",
          "type": "uint8"
        },
        {
          "internalType": "uint256",
          "name": "creationTimestamp",
          "type": "uint256"
        },
        {
          "internalType": "uint256",
          "name": "duration",
          "type": "uint256"
        },
        {
          "internalType": "uint256",
          "name": "proposalsCount",
          "type": "uint256"
        }
      ],
      "stateMutability": "view",
      "type": "function",
      "constant": true
    },
    {
      "inputs": [
        {
          "internalType": "uint256",
          "name": "_id",
          "type": "uint256"
        },
        {
          "internalType": "uint256",
          "name": "_proposalId",
          "type": "uint256"
        }
      ],
      "name": "getProposalInfo",
      "outputs": [
        {
          "internalType": "string",
          "name": "",
          "type": "string"
        },
        {
          "internalType": "uint256",
          "name": "",
          "type": "uint256"
        }
      ],
      "stateMutability": "view",
      "type": "function",
      "constant": true
    },
    {
      "inputs": [],
      "name": "getVotingsCount",
      "outputs": [
        {
          "internalType": "uint256",
          "name": "",
          "type": "uint256"
        }
      ],
      "stateMutability": "view",
      "type": "function",
      "constant": true
    },
    {
      "inputs": [
        {
          "internalType": "uint256",
          "name": "_id",
          "type": "uint256"
        }
      ],
      "name": "isVoted",
      "outputs": [
        {
          "internalType": "bool",
          "name": "",
          "type": "bool"
        }
      ],
      "stateMutability": "view",
      "type": "function",
      "constant": true
    },
    {
      "inputs": [],
      "name": "getAllVotings",
      "outputs": [
        {
          "components": [
            {
              "internalType": "enum VoterERC20.VotingStatus",
              "name": "votingStatus",
              "type": "uint8"
            },
            {
              "internalType": "uint256",
              "name": "creationTimestamp",
              "type": "uint256"
            },
            {
              "internalType": "uint256",
              "name": "duration",
              "type": "uint256"
            },
            {
              "internalType": "uint256",
              "name": "proposalsCount",
              "type": "uint256"
            }
          ],
          "internalType": "struct VoterERC20.VotingInfo[]",
          "name": "",
          "type": "tuple[]"
        }
      ],
      "stateMutability": "view",
      "type": "function",
      "constant": true
    },
    {
      "inputs": [
        {
          "internalType": "uint256",
          "name": "_id",
          "type": "uint256"
        }
      ],
      "name": "getAllProposals",
      "outputs": [
        {
          "components": [
            {
              "internalType": "string",
              "name": "name",
              "type": "string"
            },
            {
              "internalType": "uint256",
              "name": "votes",
              "type": "uint256"
            },
            {
              "internalType": "bool",
              "name": "isValue",
              "type": "bool"
            }
          ],
          "internalType": "struct VoterERC20.Proposal[]",
          "name": "",
          "type": "tuple[]"
        }
      ],
      "stateMutability": "view",
      "type": "function",
      "constant": true
    },
    {
      "inputs": [
        {
          "internalType": "bytes32[]",
          "name": "proposals",
          "type": "bytes32[]"
        },
        {
          "internalType": "uint256",
          "name": "votingDurationSeconds",
          "type": "uint256"
        }
      ],
      "name": "createVoting",
      "outputs": [
        {
          "internalType": "uint256",
          "name": "",
          "type": "uint256"
        }
      ],
      "stateMutability": "nonpayable",
      "type": "function"
    },
    {
      "inputs": [
        {
          "internalType": "uint256",
          "name": "votingId",
          "type": "uint256"
        }
      ],
      "name": "endVoting",
      "outputs": [],
      "stateMutability": "nonpayable",
      "type": "function"
    },
    {
      "inputs": [
        {
          "internalType": "uint256",
          "name": "votingId",
          "type": "uint256"
        }
      ],
      "name": "getWinnerProposal",
      "outputs": [
        {
          "internalType": "string",
          "name": "",
          "type": "string"
        }
      ],
      "stateMutability": "view",
      "type": "function",
      "constant": true
    },
    {
      "inputs": [
        {
          "internalType": "uint256",
          "name": "votingId",
          "type": "uint256"
        },
        {
          "internalType": "string",
          "name": "proposal",
          "type": "string"
        }
      ],
      "name": "vote",
      "outputs": [],
      "stateMutability": "nonpayable",
      "type": "function"
    }
  ],
  "bytecode": "0x60806040523480156200001157600080fd5b506040516200365c3803806200365c8339818101604052810190620000379190620003c9565b8282816003908051906020019062000051929190620002b0565b5080600490805190602001906200006a929190620002b0565b506012600560006101000a81548160ff021916908360ff16021790555050506200009b3382620000a460201b60201c565b5050506200060d565b600073ffffffffffffffffffffffffffffffffffffffff168273ffffffffffffffffffffffffffffffffffffffff16141562000117576040517f08c379a00000000000000000000000000000000000000000000000000000000081526004016200010e9062000508565b60405180910390fd5b6200012b600083836200025360201b60201c565b62000147816002546200025860201b620013b01790919060201c565b600281905550620001a5816000808573ffffffffffffffffffffffffffffffffffffffff1673ffffffffffffffffffffffffffffffffffffffff168152602001908152602001600020546200025860201b620013b01790919060201c565b6000808473ffffffffffffffffffffffffffffffffffffffff1673ffffffffffffffffffffffffffffffffffffffff168152602001908152602001600020819055508173ffffffffffffffffffffffffffffffffffffffff16600073ffffffffffffffffffffffffffffffffffffffff167fddf252ad1be2c89b69c2b068fc378daa952ba7f163c4a11628f55a4df523b3ef836040516200024791906200052a565b60405180910390a35050565b505050565b600080828401905083811015620002a6576040517f08c379a00000000000000000000000000000000000000000000000000000000081526004016200029d90620004e6565b60405180910390fd5b8091505092915050565b828054600181600116156101000203166002900490600052602060002090601f016020900481019282601f10620002f357805160ff191683800117855562000324565b8280016001018555821562000324579182015b828111156200032357825182559160200191906001019062000306565b5b50905062000333919062000337565b5090565b5b808211156200035257600081600090555060010162000338565b5090565b600082601f8301126200036857600080fd5b81516200037f620003798262000575565b62000547565b915080825260208301602083018583830111156200039c57600080fd5b620003a9838284620005bd565b50505092915050565b600081519050620003c381620005f3565b92915050565b600080600060608486031215620003df57600080fd5b600084015167ffffffffffffffff811115620003fa57600080fd5b620004088682870162000356565b935050602084015167ffffffffffffffff8111156200042657600080fd5b620004348682870162000356565b92505060406200044786828701620003b2565b9150509250925092565b600062000460601b83620005a2565b91507f536166654d6174683a206164646974696f6e206f766572666c6f7700000000006000830152602082019050919050565b6000620004a2601f83620005a2565b91507f45524332303a206d696e7420746f20746865207a65726f2061646472657373006000830152602082019050919050565b620004e081620005b3565b82525050565b60006020820190508181036000830152620005018162000451565b9050919050565b60006020820190508181036000830152620005238162000493565b9050919050565b6000602082019050620005416000830184620004d5565b92915050565b6000604051905081810181811067ffffffffffffffff821117156200056b57600080fd5b8060405250919050565b600067ffffffffffffffff8211156200058d57600080fd5b601f19601f8301169050602081019050919050565b600082825260208201905092915050565b6000819050919050565b60005b83811015620005dd578082015181840152602081019050620005c0565b83811115620005ed576000848401525b50505050565b620005fe81620005b3565b81146200060a57600080fd5b50565b61303f806200061d6000396000f3fe608060405234801561001057600080fd5b50600436106101375760003560e01c806395d89b41116100b8578063bb660d811161007c578063bb660d81146103a0578063bf8ca1aa146103d0578063c33a259c14610400578063dae7c92c14610430578063dd62ed3e1461044e578063e4c41bb41461047e57610137565b806395d89b41146102bf578063a11191d8146102dd578063a457c2d71461030d578063a598d03c1461033d578063a9059cbb1461037057610137565b8063313ce567116100ff578063313ce567146101f45780633950935114610212578063649f89a51461024257806370a082311461025e578063945155ba1461028e57610137565b806306fdde031461013c578063095ea7b31461015a57806318160ddd1461018a57806323b872dd146101a857806324108475146101d8575b600080fd5b61014461049c565b6040516101519190612b05565b60405180910390f35b610174600480360381019061016f919061225b565b61053e565b6040516101819190612aa5565b60405180910390f35b61019261055c565b60405161019f9190612d17565b60405180910390f35b6101c260048036038101906101bd919061220c565b610566565b6040516101cf9190612aa5565b60405180910390f35b6101f260048036038101906101ed9190612314565b61063f565b005b6101fc610892565b6040516102099190612d32565b60405180910390f35b61022c6004803603810190610227919061225b565b6108a9565b6040516102399190612aa5565b60405180910390f35b61025c600480360381019061025791906122eb565b61095c565b005b610278600480360381019061027391906121a7565b610a1c565b6040516102859190612d17565b60405180910390f35b6102a860048036038101906102a39190612368565b610a64565b6040516102b6929190612b27565b60405180910390f35b6102c7610b74565b6040516102d49190612b05565b60405180910390f35b6102f760048036038101906102f29190612297565b610c16565b6040516103049190612d17565b60405180910390f35b6103276004803603810190610322919061225b565b610da4565b6040516103349190612aa5565b60405180910390f35b610357600480360381019061035291906122eb565b610e71565b6040516103679493929190612ac0565b60405180910390f35b61038a6004803603810190610385919061225b565b610ebb565b6040516103979190612aa5565b60405180910390f35b6103ba60048036038101906103b591906122eb565b610ed9565b6040516103c79190612aa5565b60405180910390f35b6103ea60048036038101906103e591906122eb565b610f4b565b6040516103f79190612a61565b60405180910390f35b61041a600480360381019061041591906122eb565b6110eb565b6040516104279190612b05565b60405180910390f35b6104386111d3565b6040516104459190612d17565b60405180910390f35b610468600480360381019061046391906121d0565b6111e0565b6040516104759190612d17565b60405180910390f35b610486611267565b6040516104939190612a83565b60405180910390f35b606060038054600181600116156101000203166002900480601f0160208091040260200160405190810160405280929190818152602001828054600181600116156101000203166002900480156105345780601f1061050957610100808354040283529160200191610534565b820191906000526020600020905b81548152906001019060200180831161051757829003601f168201915b5050505050905090565b600061055261054b611405565b848461140d565b6001905092915050565b6000600254905090565b60006105738484846115d8565b6106348461057f611405565b61062f85604051806060016040528060288152602001612fbd60289139600160008b73ffffffffffffffffffffffffffffffffffffffff1673ffffffffffffffffffffffffffffffffffffffff16815260200190815260200160002060006105e5611405565b73ffffffffffffffffffffffffffffffffffffffff1673ffffffffffffffffffffffffffffffffffffffff1681526020019081526020016000205461186d9092919063ffffffff16565b61140d565b600190509392505050565b816000600f828154811061064f57fe5b906000526020600020906006020190506000816001015414156106a7576040517f08c379a000000000000000000000000000000000000000000000000000000000815260040161069e90612c77565b60405180910390fd5b4281600201548260010154011115610841576000600f85815481106106c857fe5b906000526020600020906006020190508060050160003373ffffffffffffffffffffffffffffffffffffffff1673ffffffffffffffffffffffffffffffffffffffff16815260200190815260200160002060009054906101000a900460ff1615610767576040517f08c379a000000000000000000000000000000000000000000000000000000000815260040161075e90612bf7565b60405180910390fd5b600061077382866118c8565b90508060020160009054906101000a900460ff166107c6576040517f08c379a00000000000000000000000000000000000000000000000000000000081526004016107bd90612c97565b60405180910390fd5b60018260050160003373ffffffffffffffffffffffffffffffffffffffff1673ffffffffffffffffffffffffffffffffffffffff16815260200190815260200160002060006101000a81548160ff02191690831515021790555061082933610a1c565b8160010160008282540192505081905550505061088c565b61084a826119d1565b600061088b576040517f08c379a000000000000000000000000000000000000000000000000000000000815260040161088290612bd7565b60405180910390fd5b5b50505050565b6000600560009054906101000a900460ff16905090565b60006109526108b6611405565b8461094d85600160006108c7611405565b73ffffffffffffffffffffffffffffffffffffffff1673ffffffffffffffffffffffffffffffffffffffff16815260200190815260200160002060008973ffffffffffffffffffffffffffffffffffffffff1673ffffffffffffffffffffffffffffffffffffffff168152602001908152602001600020546113b090919063ffffffff16565b61140d565b6001905092915050565b6000600f828154811061096b57fe5b906000526020600020906006020190506000816001015414156109c3576040517f08c379a00000000000000000000000000000000000000000000000000000000081526004016109ba90612c77565b60405180910390fd5b80600101548160020154420311610a0f576040517f08c379a0000000000000000000000000000000000000000000000000000000008152600401610a0690612c17565b60405180910390fd5b610a18826119d1565b5050565b60008060008373ffffffffffffffffffffffffffffffffffffffff1673ffffffffffffffffffffffffffffffffffffffff168152602001908152602001600020549050919050565b60606000600f8481548110610a7557fe5b90600052602060002090600602016004016000848152602001908152602001600020600001600f8581548110610aa757fe5b9060005260206000209060060201600401600085815260200190815260200160002060010154818054600181600116156101000203166002900480601f016020809104026020016040519081016040528092919081815260200182805460018160011615610100020316600290048015610b625780601f10610b3757610100808354040283529160200191610b62565b820191906000526020600020905b815481529060010190602001808311610b4557829003601f168201915b50505050509150915091509250929050565b606060048054600181600116156101000203166002900480601f016020809104026020016040519081016040528092919081815260200182805460018160011615610100020316600290048015610c0c5780601f10610be157610100808354040283529160200191610c0c565b820191906000526020600020905b815481529060010190602001808311610bef57829003601f168201915b5050505050905090565b600080610c2161055c565b6064610c2c33610a1c565b0281610c3457fe5b0490506005811015610c7b576040517f08c379a0000000000000000000000000000000000000000000000000000000008152600401610c7290612b97565b60405180910390fd5b600f600181600181540180825580915050039060005260206000209050506000600f6001600f805490500381548110610cb057fe5b906000526020600020906006020190506000816003018190555060008160000160006101000a81548160ff02191690836002811115610ceb57fe5b021790555042816001018190555083816002018190555060005b8551811015610d90576060610d2c878381518110610d1f57fe5b6020026020010151611a14565b9050610d388382611bcb565b15610d78576040517f08c379a0000000000000000000000000000000000000000000000000000000008152600401610d6f90612c37565b60405180910390fd5b610d828382611cbd565b508080600101915050610d05565b506001600f80549050039250505092915050565b6000610e67610db1611405565b84610e6285604051806060016040528060258152602001612fe56025913960016000610ddb611405565b73ffffffffffffffffffffffffffffffffffffffff1673ffffffffffffffffffffffffffffffffffffffff16815260200190815260200160002060008a73ffffffffffffffffffffffffffffffffffffffff1673ffffffffffffffffffffffffffffffffffffffff1681526020019081526020016000205461186d9092919063ffffffff16565b61140d565b6001905092915050565b600f8181548110610e7e57fe5b90600052602060002090600602016000915090508060000160009054906101000a900460ff16908060010154908060020154908060030154905084565b6000610ecf610ec8611405565b84846115d8565b6001905092915050565b6000600f8281548110610ee857fe5b906000526020600020906006020160050160003373ffffffffffffffffffffffffffffffffffffffff1673ffffffffffffffffffffffffffffffffffffffff16815260200190815260200160002060009054906101000a900460ff169050919050565b60606000600f8381548110610f5c57fe5b906000526020600020906006020190506060816003015467ffffffffffffffff81118015610f8957600080fd5b50604051908082528060200260200182016040528015610fc357816020015b610fb0611f9e565b815260200190600190039081610fa85790505b50905060005b82600301548110156110e057826004016000828152602001908152602001600020604051806060016040529081600082018054600181600116156101000203166002900480601f01602080910402602001604051908101604052809291908181526020018280546001816001161561010002031660029004801561108e5780601f106110635761010080835404028352916020019161108e565b820191906000526020600020905b81548152906001019060200180831161107157829003601f168201915b50505050508152602001600182015481526020016002820160009054906101000a900460ff1615151515815250508282815181106110c857fe5b60200260200101819052508080600101915050610fc9565b508092505050919050565b60606000600f83815481106110fc57fe5b90600052602060002090600602019050600081600101541415611154576040517f08c379a000000000000000000000000000000000000000000000000000000000815260040161114b90612cd7565b60405180910390fd5b6001600281111561116157fe5b8160000160009054906101000a900460ff16600281111561117e57fe5b146111be576040517f08c379a00000000000000000000000000000000000000000000000000000000081526004016111b590612c57565b60405180910390fd5b6111c781611d51565b60000151915050919050565b6000600f80549050905090565b6000600160008473ffffffffffffffffffffffffffffffffffffffff1673ffffffffffffffffffffffffffffffffffffffff16815260200190815260200160002060008373ffffffffffffffffffffffffffffffffffffffff1673ffffffffffffffffffffffffffffffffffffffff16815260200190815260200160002054905092915050565b606080600f8054905067ffffffffffffffff8111801561128657600080fd5b506040519080825280602002602001820160405280156112c057816020015b6112ad611fc1565b8152602001906001900390816112a55790505b50905060005b600f805490508110156113a8576040518060800160405280600f83815481106112eb57fe5b906000526020600020906006020160000160009054906101000a900460ff16600281111561131557fe5b8152602001600f838154811061132757fe5b9060005260206000209060060201600101548152602001600f838154811061134b57fe5b9060005260206000209060060201600201548152602001600f838154811061136f57fe5b90600052602060002090600602016003015481525082828151811061139057fe5b602002602001018190525080806001019150506112c6565b508091505090565b6000808284019050838110156113fb576040517f08c379a00000000000000000000000000000000000000000000000000000000081526004016113f290612bb7565b60405180910390fd5b8091505092915050565b600033905090565b600073ffffffffffffffffffffffffffffffffffffffff168373ffffffffffffffffffffffffffffffffffffffff16141561147d576040517f08c379a000000000000000000000000000000000000000000000000000000000815260040161147490612cf7565b60405180910390fd5b600073ffffffffffffffffffffffffffffffffffffffff168273ffffffffffffffffffffffffffffffffffffffff1614156114ed576040517f08c379a00000000000000000000000000000000000000000000000000000000081526004016114e490612b77565b60405180910390fd5b80600160008573ffffffffffffffffffffffffffffffffffffffff1673ffffffffffffffffffffffffffffffffffffffff16815260200190815260200160002060008473ffffffffffffffffffffffffffffffffffffffff1673ffffffffffffffffffffffffffffffffffffffff168152602001908152602001600020819055508173ffffffffffffffffffffffffffffffffffffffff168373ffffffffffffffffffffffffffffffffffffffff167f8c5be1e5ebec7d5bd14f71427d1e84f3dd0314c0f7b2291e5b200ac8c7c3b925836040516115cb9190612d17565b60405180910390a3505050565b600073ffffffffffffffffffffffffffffffffffffffff168373ffffffffffffffffffffffffffffffffffffffff161415611648576040517f08c379a000000000000000000000000000000000000000000000000000000000815260040161163f90612cb7565b60405180910390fd5b600073ffffffffffffffffffffffffffffffffffffffff168273ffffffffffffffffffffffffffffffffffffffff1614156116b8576040517f08c379a00000000000000000000000000000000000000000000000000000000081526004016116af90612b57565b60405180910390fd5b6116c3838383611f7e565b61172e81604051806060016040528060268152602001612f97602691396000808773ffffffffffffffffffffffffffffffffffffffff1673ffffffffffffffffffffffffffffffffffffffff1681526020019081526020016000205461186d9092919063ffffffff16565b6000808573ffffffffffffffffffffffffffffffffffffffff1673ffffffffffffffffffffffffffffffffffffffff168152602001908152602001600020819055506117c1816000808573ffffffffffffffffffffffffffffffffffffffff1673ffffffffffffffffffffffffffffffffffffffff168152602001908152602001600020546113b090919063ffffffff16565b6000808473ffffffffffffffffffffffffffffffffffffffff1673ffffffffffffffffffffffffffffffffffffffff168152602001908152602001600020819055508173ffffffffffffffffffffffffffffffffffffffff168373ffffffffffffffffffffffffffffffffffffffff167fddf252ad1be2c89b69c2b068fc378daa952ba7f163c4a11628f55a4df523b3ef836040516118609190612d17565b60405180910390a3505050565b60008383111582906118b5576040517f08c379a00000000000000000000000000000000000000000000000000000000081526004016118ac9190612b05565b60405180910390fd5b5060008385039050809150509392505050565b600080600090505b83600301548110156119c5576119968460040160008381526020019081526020016000206000018054600181600116156101000203166002900480601f01602080910402602001604051908101604052809291908181526020018280546001816001161561010002031660029004801561198b5780601f106119605761010080835404028352916020019161198b565b820191906000526020600020905b81548152906001019060200180831161196e57829003601f168201915b505050505084611f83565b156119b8578360040160008281526020019081526020016000209150506119cb565b80806001019150506118d0565b50600c90505b92915050565b6001600f82815481106119e057fe5b906000526020600020906006020160000160006101000a81548160ff02191690836002811115611a0c57fe5b021790555050565b606080602067ffffffffffffffff81118015611a2f57600080fd5b506040519080825280601f01601f191660200182016040528015611a625781602001600182028036833780820191505090505b5090506000805b6020811015611b055760008160080260020a8660001c0260001b9050600060f81b817effffffffffffffffffffffffffffffffffffffffffffffffffffffffffffff191614611af75780848481518110611abf57fe5b60200101907effffffffffffffffffffffffffffffffffffffffffffffffffffffffffffff1916908160001a90535082806001019350505b508080600101915050611a69565b5060608167ffffffffffffffff81118015611b1f57600080fd5b506040519080825280601f01601f191660200182016040528015611b525781602001600182028036833780820191505090505b50905060005b82811015611bbf57838181518110611b6c57fe5b602001015160f81c60f81b828281518110611b8357fe5b60200101907effffffffffffffffffffffffffffffffffffffffffffffffffffffffffffff1916908160001a9053508080600101915050611b58565b50809350505050919050565b6000805b8360030154811015611cb157611c958460040160008381526020019081526020016000206000018054600181600116156101000203166002900480601f016020809104026020016040519081016040528092919081815260200182805460018160011615610100020316600290048015611c8a5780601f10611c5f57610100808354040283529160200191611c8a565b820191906000526020600020905b815481529060010190602001808311611c6d57829003601f168201915b505050505084611f83565b15611ca4576001915050611cb7565b8080600101915050611bcf565b50600090505b92915050565b604051806060016040528082815260200160008152602001600115158152508260040160008460030160008154809291906001019190505581526020019081526020016000206000820151816000019080519060200190611d1f929190611ff4565b506020820151816001015560408201518160020160006101000a81548160ff0219169083151502179055509050505050565b611d59611f9e565b611d61611f9e565b826004016000808152602001908152602001600020604051806060016040529081600082018054600181600116156101000203166002900480601f016020809104026020016040519081016040528092919081815260200182805460018160011615610100020316600290048015611e1a5780601f10611def57610100808354040283529160200191611e1a565b820191906000526020600020905b815481529060010190602001808311611dfd57829003601f168201915b50505050508152602001600182015481526020016002820160009054906101000a900460ff161515151581525050905060005b8360030154811015611f74578160200151846004016000838152602001908152602001600020600101541115611f6757836004016000828152602001908152602001600020604051806060016040529081600082018054600181600116156101000203166002900480601f016020809104026020016040519081016040528092919081815260200182805460018160011615610100020316600290048015611f365780601f10611f0b57610100808354040283529160200191611f36565b820191906000526020600020905b815481529060010190602001808311611f1957829003601f168201915b50505050508152602001600182015481526020016002820160009054906101000a900460ff16151515158152505091505b8080600101915050611e4d565b5080915050919050565b505050565b60008180519060200120838051906020012014905092915050565b604051806060016040528060608152602001600081526020016000151581525090565b604051806080016040528060006002811115611fd957fe5b81526020016000815260200160008152602001600081525090565b828054600181600116156101000203166002900490600052602060002090601f016020900481019282601f1061203557805160ff1916838001178555612063565b82800160010185558215612063579182015b82811115612062578251825591602001919060010190612047565b5b5090506120709190612074565b5090565b5b8082111561208d576000816000905550600101612075565b5090565b6000813590506120a081612f51565b92915050565b600082601f8301126120b757600080fd5b81356120ca6120c582612d7a565b612d4d565b915081818352602084019350602081019050838560208402820111156120ef57600080fd5b60005b8381101561211f57816121058882612129565b8452602084019350602083019250506001810190506120f2565b5050505092915050565b60008135905061213881612f68565b92915050565b600082601f83011261214f57600080fd5b813561216261215d82612da2565b612d4d565b9150808252602083016020830185838301111561217e57600080fd5b612189838284612ef1565b50505092915050565b6000813590506121a181612f7f565b92915050565b6000602082840312156121b957600080fd5b60006121c784828501612091565b91505092915050565b600080604083850312156121e357600080fd5b60006121f185828601612091565b925050602061220285828601612091565b9150509250929050565b60008060006060848603121561222157600080fd5b600061222f86828701612091565b935050602061224086828701612091565b925050604061225186828701612192565b9150509250925092565b6000806040838503121561226e57600080fd5b600061227c85828601612091565b925050602061228d85828601612192565b9150509250929050565b600080604083850312156122aa57600080fd5b600083013567ffffffffffffffff8111156122c457600080fd5b6122d0858286016120a6565b92505060206122e185828601612192565b9150509250929050565b6000602082840312156122fd57600080fd5b600061230b84828501612192565b91505092915050565b6000806040838503121561232757600080fd5b600061233585828601612192565b925050602083013567ffffffffffffffff81111561235257600080fd5b61235e8582860161213e565b9150509250929050565b6000806040838503121561237b57600080fd5b600061238985828601612192565b925050602061239a85828601612192565b9150509250929050565b60006123b0838361298f565b905092915050565b60006123c483836129df565b60808301905092915050565b60006123db82612dee565b6123e58185612e29565b9350836020820285016123f785612dce565b8060005b85811015612433578484038952815161241485826123a4565b945061241f83612e0f565b925060208a019950506001810190506123fb565b50829750879550505050505092915050565b600061245082612df9565b61245a8185612e3a565b935061246583612dde565b8060005b8381101561249657815161247d88826123b8565b975061248883612e1c565b925050600181019050612469565b5085935050505092915050565b6124ac81612e7f565b82525050565b6124bb81612e7f565b82525050565b6124ca81612edf565b82525050565b6124d981612edf565b82525050565b60006124ea82612e04565b6124f48185612e4b565b9350612504818560208601612f00565b61250d81612f33565b840191505092915050565b600061252382612e04565b61252d8185612e5c565b935061253d818560208601612f00565b61254681612f33565b840191505092915050565b600061255e602383612e5c565b91507f45524332303a207472616e7366657220746f20746865207a65726f206164647260008301527f65737300000000000000000000000000000000000000000000000000000000006020830152604082019050919050565b60006125c4602283612e5c565b91507f45524332303a20617070726f766520746f20746865207a65726f20616464726560008301527f73730000000000000000000000000000000000000000000000000000000000006020830152604082019050919050565b600061262a602d83612e5c565b91507f546f6b656e206f776e6572206d7573742068617665203e3d203525206f66206260008301527f616e6b20656d697373696f6e2e000000000000000000000000000000000000006020830152604082019050919050565b6000612690601b83612e5c565b91507f536166654d6174683a206164646974696f6e206f766572666c6f7700000000006000830152602082019050919050565b60006126d0601283612e5c565b91507f566f74696e672069732066696e697368656400000000000000000000000000006000830152602082019050919050565b6000612710600d83612e5c565b91507f416c726561647920766f746564000000000000000000000000000000000000006000830152602082019050919050565b6000612750601b83612e5c565b91507f566f74696e6720646f6573206e6f7420657870697265642079657400000000006000830152602082019050919050565b6000612790601a83612e5c565b91507f4475626c69636174656420766f74696e672070726f706f73616c0000000000006000830152602082019050919050565b60006127d0601d83612e5c565b91507f5468697320766f74696e67206973206469646e742066696e69736865640000006000830152602082019050919050565b6000612810601383612e5c565b91507f566f74696e67206973206e6f74206578697374000000000000000000000000006000830152602082019050919050565b6000612850601b83612e5c565b91507f5468652070726f706f73616c20646f6573206e6f7420657869737400000000006000830152602082019050919050565b6000612890602583612e5c565b91507f45524332303a207472616e736665722066726f6d20746865207a65726f20616460008301527f64726573730000000000000000000000000000000000000000000000000000006020830152604082019050919050565b60006128f6601883612e5c565b91507f5468697320766f74696e6720646f65736e7420657869737400000000000000006000830152602082019050919050565b6000612936602483612e5c565b91507f45524332303a20617070726f76652066726f6d20746865207a65726f2061646460008301527f72657373000000000000000000000000000000000000000000000000000000006020830152604082019050919050565b600060608301600083015184820360008601526129ac82826124df565b91505060208301516129c16020860182612a34565b5060408301516129d460408601826124a3565b508091505092915050565b6080820160008201516129f560008501826124c1565b506020820151612a086020850182612a34565b506040820151612a1b6040850182612a34565b506060820151612a2e6060850182612a34565b50505050565b612a3d81612ec8565b82525050565b612a4c81612ec8565b82525050565b612a5b81612ed2565b82525050565b60006020820190508181036000830152612a7b81846123d0565b905092915050565b60006020820190508181036000830152612a9d8184612445565b905092915050565b6000602082019050612aba60008301846124b2565b92915050565b6000608082019050612ad560008301876124d0565b612ae26020830186612a43565b612aef6040830185612a43565b612afc6060830184612a43565b95945050505050565b60006020820190508181036000830152612b1f8184612518565b905092915050565b60006040820190508181036000830152612b418185612518565b9050612b506020830184612a43565b9392505050565b60006020820190508181036000830152612b7081612551565b9050919050565b60006020820190508181036000830152612b90816125b7565b9050919050565b60006020820190508181036000830152612bb08161261d565b9050919050565b60006020820190508181036000830152612bd081612683565b9050919050565b60006020820190508181036000830152612bf0816126c3565b9050919050565b60006020820190508181036000830152612c1081612703565b9050919050565b60006020820190508181036000830152612c3081612743565b9050919050565b60006020820190508181036000830152612c5081612783565b9050919050565b60006020820190508181036000830152612c70816127c3565b9050919050565b60006020820190508181036000830152612c9081612803565b9050919050565b60006020820190508181036000830152612cb081612843565b9050919050565b60006020820190508181036000830152612cd081612883565b9050919050565b60006020820190508181036000830152612cf0816128e9565b9050919050565b60006020820190508181036000830152612d1081612929565b9050919050565b6000602082019050612d2c6000830184612a43565b92915050565b6000602082019050612d476000830184612a52565b92915050565b6000604051905081810181811067ffffffffffffffff82111715612d7057600080fd5b8060405250919050565b600067ffffffffffffffff821115612d9157600080fd5b602082029050602081019050919050565b600067ffffffffffffffff821115612db957600080fd5b601f19601f8301169050602081019050919050565b6000819050602082019050919050565b6000819050602082019050919050565b600081519050919050565b600081519050919050565b600081519050919050565b6000602082019050919050565b6000602082019050919050565b600082825260208201905092915050565b600082825260208201905092915050565b600082825260208201905092915050565b600082825260208201905092915050565b6000612e7882612ea8565b9050919050565b60008115159050919050565b6000819050919050565b6000819050612ea382612f44565b919050565b600073ffffffffffffffffffffffffffffffffffffffff82169050919050565b6000819050919050565b600060ff82169050919050565b6000612eea82612e95565b9050919050565b82818337600083830152505050565b60005b83811015612f1e578082015181840152602081019050612f03565b83811115612f2d576000848401525b50505050565b6000601f19601f8301169050919050565b60038110612f4e57fe5b50565b612f5a81612e6d565b8114612f6557600080fd5b50565b612f7181612e8b565b8114612f7c57600080fd5b50565b612f8881612ec8565b8114612f9357600080fd5b5056fe45524332303a207472616e7366657220616d6f756e7420657863656564732062616c616e636545524332303a207472616e7366657220616d6f756e74206578636565647320616c6c6f77616e636545524332303a2064656372656173656420616c6c6f77616e63652062656c6f77207a65726fa26469706673582212208b2321c2afda5df126026fba625f421f62521294e771633eaa0aa1811b63b79e64736f6c63430007000033",
  "immutableReferences": {},
  "source": "// SPDX-License-Identifier: GPL-3.0\r\n\r\npragma solidity >=0.4.22 <0.9.0;\r\npragma experimental ABIEncoderV2;\r\n//pragma abicoder v2;\r\n\r\nimport \"@openzeppelin/contracts/token/ERC20/ERC20.sol\";\r\n\r\ncontract VoterERC20 is ERC20 {\r\n    Voting DEFAULT_VOTING;\r\n\r\n    Proposal DEFAULT_PROPOSAL;\r\n\r\n    Voting[] public votings;\r\n\r\n    constructor(\r\n        string memory _name,\r\n        string memory _symbol,\r\n        uint256 _totalSupply\r\n    ) ERC20(_name, _symbol) {\r\n        _mint(msg.sender, _totalSupply);\r\n    }\r\n\r\n    modifier onlyValidTokenOwner() {\r\n        uint256 procentage = (balanceOf(msg.sender) * 100) / totalSupply();\r\n        // console.log(\"Token owner has \", procentage, \"of bank emission\");\r\n\r\n        require(\r\n            procentage >= 5,\r\n            \"Token owner must have >= 5% of bank emission.\"\r\n        );\r\n        _;\r\n    }\r\n\r\n    modifier notExpiredVoting(uint256 votingId) {\r\n        Voting storage voting = votings[votingId];\r\n\r\n        require(voting.creationTimestamp != 0, \"Voting is not exist\");\r\n\r\n        if (voting.creationTimestamp + voting.duration > block.timestamp) {\r\n            _;\r\n        } else {\r\n            finishVoting(votingId);\r\n            require(false, \"Voting is finished\");\r\n        }\r\n    }\r\n\r\n    function getProposalInfo(uint256 _id, uint256 _proposalId)\r\n        public\r\n        view\r\n        returns (string memory, uint256)\r\n    {\r\n        return (\r\n            votings[_id].proposals[_proposalId].name,\r\n            votings[_id].proposals[_proposalId].votes\r\n        );\r\n    }\r\n\r\n    function getVotingsCount() public view returns (uint256) {\r\n        return votings.length;\r\n    }\r\n\r\n    function isVoted(uint256 _id) public view returns (bool) {\r\n        return votings[_id].isVoted[msg.sender];\r\n    }\r\n\r\n    function getAllVotings() public view returns (VotingInfo[] memory) {\r\n        VotingInfo[] memory info = new VotingInfo[](votings.length);\r\n\r\n        for (uint256 i; i < votings.length; i++) {\r\n            info[i] = VotingInfo(\r\n                votings[i].votingStatus,\r\n                votings[i].creationTimestamp,\r\n                votings[i].duration,\r\n                votings[i].proposalsCount\r\n            );\r\n        }\r\n\r\n        return info;\r\n    }\r\n\r\n    function getAllProposals(uint256 _id)\r\n        public\r\n        view\r\n        returns (Proposal[] memory)\r\n    {\r\n        Voting storage v = votings[_id];\r\n\r\n        Proposal[] memory proposals = new Proposal[](v.proposalsCount);\r\n\r\n        for (uint256 i = 0; i < v.proposalsCount; i++) {\r\n            proposals[i] = v.proposals[i];\r\n        }\r\n\r\n        return proposals;\r\n    }\r\n\r\n    function createVoting(\r\n        bytes32[] memory proposals,\r\n        uint256 votingDurationSeconds\r\n    ) public onlyValidTokenOwner returns (uint256) {\r\n        votings.push();\r\n\r\n        Voting storage newVoting = votings[votings.length - 1];\r\n\r\n        newVoting.proposalsCount = 0;\r\n        newVoting.votingStatus = VotingStatus.ACTIVE;\r\n        newVoting.creationTimestamp = block.timestamp;\r\n        newVoting.duration = votingDurationSeconds;\r\n\r\n        for (uint256 i = 0; i < proposals.length; i++) {\r\n            string memory proposal = bytes32ToString(proposals[i]);\r\n\r\n            require(\r\n                !contains(newVoting, proposal),\r\n                \"Dublicated voting proposal\"\r\n            );\r\n            addProposal(newVoting, proposal);\r\n        }\r\n\r\n        return votings.length - 1;\r\n    }\r\n\r\n    function endVoting(uint256 votingId) public {\r\n        Voting storage voting = votings[votingId];\r\n\r\n        require(voting.creationTimestamp != 0, \"Voting is not exist\");\r\n        require(\r\n            block.timestamp - voting.duration > voting.creationTimestamp,\r\n            \"Voting does not expired yet\"\r\n        );\r\n\r\n        finishVoting(votingId);\r\n    }\r\n\r\n    function getWinnerProposal(uint256 votingId)\r\n        public\r\n        view\r\n        returns (string memory)\r\n    {\r\n        Voting storage voting = votings[votingId];\r\n\r\n        require(voting.creationTimestamp != 0, \"This voting doesnt exist\");\r\n        require(\r\n            voting.votingStatus == VotingStatus.FINISHED,\r\n            \"This voting is didnt finished\"\r\n        );\r\n\r\n        return calculateWinnerProposal(voting).name;\r\n    }\r\n\r\n    function vote(uint256 votingId, string memory proposal)\r\n        public\r\n        notExpiredVoting(votingId)\r\n    {\r\n        Voting storage voting = votings[votingId];\r\n\r\n        require(!voting.isVoted[msg.sender], \"Already voted\");\r\n\r\n        Proposal storage p = getProposalByName(voting, proposal);\r\n\r\n        require(p.isValue, \"The proposal does not exist\");\r\n\r\n        voting.isVoted[msg.sender] = true;\r\n        p.votes += balanceOf(msg.sender);\r\n    }\r\n\r\n    function addProposal(Voting storage voting, string memory proposal)\r\n        private\r\n    {\r\n        voting.proposals[voting.proposalsCount++] = Proposal(proposal, 0, true);\r\n    }\r\n\r\n    function calculateWinnerProposal(Voting storage voting)\r\n        private\r\n        view\r\n        returns (Proposal memory)\r\n    {\r\n        Proposal memory maxVote = voting.proposals[0];\r\n\r\n        for (uint256 i = 0; i < voting.proposalsCount; i++) {\r\n            if (voting.proposals[i].votes > maxVote.votes) {\r\n                maxVote = voting.proposals[i];\r\n            }\r\n        }\r\n\r\n        return maxVote;\r\n    }\r\n\r\n    function contains(Voting storage voting, string memory value)\r\n        private\r\n        view\r\n        returns (bool)\r\n    {\r\n        for (uint256 i; i < voting.proposalsCount; i++) {\r\n            if (strcmp(voting.proposals[i].name, value)) {\r\n                return true;\r\n            }\r\n        }\r\n\r\n        return false;\r\n    }\r\n\r\n    function getProposalByName(Voting storage voting, string memory name)\r\n        private\r\n        view\r\n        returns (Proposal storage)\r\n    {\r\n        for (uint256 i = 0; i < voting.proposalsCount; i++) {\r\n            if (strcmp(voting.proposals[i].name, name)) {\r\n                return voting.proposals[i];\r\n            }\r\n        }\r\n\r\n        return DEFAULT_PROPOSAL;\r\n    }\r\n\r\n    function bytes32ToString(bytes32 x) private pure returns (string memory) {\r\n        bytes memory bytesString = new bytes(32);\r\n        uint256 charCount = 0;\r\n\r\n        for (uint256 j = 0; j < 32; j++) {\r\n            bytes1 char = bytes1(bytes32(uint256(x) * 2**(8 * j)));\r\n\r\n            if (char != 0) {\r\n                bytesString[charCount] = char;\r\n                charCount++;\r\n            }\r\n        }\r\n\r\n        bytes memory bytesStringTrimmed = new bytes(charCount);\r\n\r\n        for (uint256 j = 0; j < charCount; j++) {\r\n            bytesStringTrimmed[j] = bytesString[j];\r\n        }\r\n\r\n        return string(bytesStringTrimmed);\r\n    }\r\n\r\n    function finishVoting(uint256 votingId) private {\r\n        votings[votingId].votingStatus = VotingStatus.FINISHED;\r\n    }\r\n\r\n    function strcmp(string memory a, string memory b)\r\n        private\r\n        pure\r\n        returns (bool)\r\n    {\r\n        return keccak256(bytes(a)) == keccak256(bytes(b));\r\n    }\r\n\r\n    enum VotingStatus {ACTIVE, FINISHED, CANCELLED}\r\n\r\n    struct VotingInfo {\r\n        VotingStatus votingStatus;\r\n        uint256 creationTimestamp;\r\n        uint256 duration;\r\n        uint256 proposalsCount;\r\n    }\r\n\r\n    struct Voting {\r\n        VotingStatus votingStatus;\r\n        uint256 creationTimestamp;\r\n        uint256 duration;\r\n        uint256 proposalsCount;\r\n        mapping(uint256 => Proposal) proposals;\r\n        mapping(address => bool) isVoted;\r\n    }\r\n\r\n    struct Proposal {\r\n        string name;\r\n        uint256 votes;\r\n        bool isValue;\r\n    }\r\n}\r\n",
  "sourcePath": "D:/_projects/Solidity/voting/contracts/VotingERC20.sol",
  "compiler": {
    "name": "solc",
    "version": "0.7.0+commit.9e61f92b.Emscripten.clang"
  },
  "schemaVersion": "3.4.0",
  "updatedAt": "2021-06-02T08:55:08.753Z",
  "networkType": "ethereum",
  "devdoc": {
    "kind": "dev",
    "methods": {
      "allowance(address,address)": {
        "details": "See {IERC20-allowance}."
      },
      "approve(address,uint256)": {
        "details": "See {IERC20-approve}. Requirements: - `spender` cannot be the zero address."
      },
      "balanceOf(address)": {
        "details": "See {IERC20-balanceOf}."
      },
      "decimals()": {
        "details": "Returns the number of decimals used to get its user representation. For example, if `decimals` equals `2`, a balance of `505` tokens should be displayed to a user as `5,05` (`505 / 10 ** 2`). Tokens usually opt for a value of 18, imitating the relationship between Ether and Wei. This is the value {ERC20} uses, unless {_setupDecimals} is called. NOTE: This information is only used for _display_ purposes: it in no way affects any of the arithmetic of the contract, including {IERC20-balanceOf} and {IERC20-transfer}."
      },
      "decreaseAllowance(address,uint256)": {
        "details": "Atomically decreases the allowance granted to `spender` by the caller. This is an alternative to {approve} that can be used as a mitigation for problems described in {IERC20-approve}. Emits an {Approval} event indicating the updated allowance. Requirements: - `spender` cannot be the zero address. - `spender` must have allowance for the caller of at least `subtractedValue`."
      },
      "increaseAllowance(address,uint256)": {
        "details": "Atomically increases the allowance granted to `spender` by the caller. This is an alternative to {approve} that can be used as a mitigation for problems described in {IERC20-approve}. Emits an {Approval} event indicating the updated allowance. Requirements: - `spender` cannot be the zero address."
      },
      "name()": {
        "details": "Returns the name of the token."
      },
      "symbol()": {
        "details": "Returns the symbol of the token, usually a shorter version of the name."
      },
      "totalSupply()": {
        "details": "See {IERC20-totalSupply}."
      },
      "transfer(address,uint256)": {
        "details": "See {IERC20-transfer}. Requirements: - `recipient` cannot be the zero address. - the caller must have a balance of at least `amount`."
      },
      "transferFrom(address,address,uint256)": {
        "details": "See {IERC20-transferFrom}. Emits an {Approval} event indicating the updated allowance. This is not required by the EIP. See the note at the beginning of {ERC20}; Requirements: - `sender` and `recipient` cannot be the zero address. - `sender` must have a balance of at least `amount`. - the caller must have allowance for ``sender``'s tokens of at least `amount`."
      }
    },
    "version": 1
  },
  "userdoc": {
    "kind": "user",
    "methods": {},
    "version": 1
  }
}