{
  "contractName": "VoterERC20",
  "abi": [
    {
      "inputs": [
        {
          "internalType": "string",
          "name": "_name",
          "type": "string"
        },
        {
          "internalType": "string",
          "name": "_symbol",
          "type": "string"
        },
        {
          "internalType": "uint256",
          "name": "_totalSupply",
          "type": "uint256"
        }
      ],
      "stateMutability": "nonpayable",
      "type": "constructor"
    },
    {
      "anonymous": false,
      "inputs": [
        {
          "indexed": true,
          "internalType": "address",
          "name": "owner",
          "type": "address"
        },
        {
          "indexed": true,
          "internalType": "address",
          "name": "spender",
          "type": "address"
        },
        {
          "indexed": false,
          "internalType": "uint256",
          "name": "value",
          "type": "uint256"
        }
      ],
      "name": "Approval",
      "type": "event"
    },
    {
      "anonymous": false,
      "inputs": [
        {
          "indexed": true,
          "internalType": "address",
          "name": "from",
          "type": "address"
        },
        {
          "indexed": true,
          "internalType": "address",
          "name": "to",
          "type": "address"
        },
        {
          "indexed": false,
          "internalType": "uint256",
          "name": "value",
          "type": "uint256"
        }
      ],
      "name": "Transfer",
      "type": "event"
    },
    {
      "inputs": [
        {
          "internalType": "address",
          "name": "owner",
          "type": "address"
        },
        {
          "internalType": "address",
          "name": "spender",
          "type": "address"
        }
      ],
      "name": "allowance",
      "outputs": [
        {
          "internalType": "uint256",
          "name": "",
          "type": "uint256"
        }
      ],
      "stateMutability": "view",
      "type": "function"
    },
    {
      "inputs": [
        {
          "internalType": "address",
          "name": "spender",
          "type": "address"
        },
        {
          "internalType": "uint256",
          "name": "amount",
          "type": "uint256"
        }
      ],
      "name": "approve",
      "outputs": [
        {
          "internalType": "bool",
          "name": "",
          "type": "bool"
        }
      ],
      "stateMutability": "nonpayable",
      "type": "function"
    },
    {
      "inputs": [
        {
          "internalType": "address",
          "name": "account",
          "type": "address"
        }
      ],
      "name": "balanceOf",
      "outputs": [
        {
          "internalType": "uint256",
          "name": "",
          "type": "uint256"
        }
      ],
      "stateMutability": "view",
      "type": "function"
    },
    {
      "inputs": [],
      "name": "decimals",
      "outputs": [
        {
          "internalType": "uint8",
          "name": "",
          "type": "uint8"
        }
      ],
      "stateMutability": "view",
      "type": "function"
    },
    {
      "inputs": [
        {
          "internalType": "address",
          "name": "spender",
          "type": "address"
        },
        {
          "internalType": "uint256",
          "name": "subtractedValue",
          "type": "uint256"
        }
      ],
      "name": "decreaseAllowance",
      "outputs": [
        {
          "internalType": "bool",
          "name": "",
          "type": "bool"
        }
      ],
      "stateMutability": "nonpayable",
      "type": "function"
    },
    {
      "inputs": [
        {
          "internalType": "address",
          "name": "spender",
          "type": "address"
        },
        {
          "internalType": "uint256",
          "name": "addedValue",
          "type": "uint256"
        }
      ],
      "name": "increaseAllowance",
      "outputs": [
        {
          "internalType": "bool",
          "name": "",
          "type": "bool"
        }
      ],
      "stateMutability": "nonpayable",
      "type": "function"
    },
    {
      "inputs": [],
      "name": "name",
      "outputs": [
        {
          "internalType": "string",
          "name": "",
          "type": "string"
        }
      ],
      "stateMutability": "view",
      "type": "function"
    },
    {
      "inputs": [],
      "name": "symbol",
      "outputs": [
        {
          "internalType": "string",
          "name": "",
          "type": "string"
        }
      ],
      "stateMutability": "view",
      "type": "function"
    },
    {
      "inputs": [],
      "name": "totalSupply",
      "outputs": [
        {
          "internalType": "uint256",
          "name": "",
          "type": "uint256"
        }
      ],
      "stateMutability": "view",
      "type": "function"
    },
    {
      "inputs": [
        {
          "internalType": "address",
          "name": "recipient",
          "type": "address"
        },
        {
          "internalType": "uint256",
          "name": "amount",
          "type": "uint256"
        }
      ],
      "name": "transfer",
      "outputs": [
        {
          "internalType": "bool",
          "name": "",
          "type": "bool"
        }
      ],
      "stateMutability": "nonpayable",
      "type": "function"
    },
    {
      "inputs": [
        {
          "internalType": "address",
          "name": "sender",
          "type": "address"
        },
        {
          "internalType": "address",
          "name": "recipient",
          "type": "address"
        },
        {
          "internalType": "uint256",
          "name": "amount",
          "type": "uint256"
        }
      ],
      "name": "transferFrom",
      "outputs": [
        {
          "internalType": "bool",
          "name": "",
          "type": "bool"
        }
      ],
      "stateMutability": "nonpayable",
      "type": "function"
    },
    {
      "inputs": [
        {
          "internalType": "uint256",
          "name": "",
          "type": "uint256"
        }
      ],
      "name": "votings",
      "outputs": [
        {
          "internalType": "enum VoterERC20.VotingStatus",
          "name": "votingStatus",
          "type": "uint8"
        },
        {
          "internalType": "uint256",
          "name": "creationTimestamp",
          "type": "uint256"
        },
        {
          "internalType": "uint256",
          "name": "duration",
          "type": "uint256"
        },
        {
          "internalType": "uint256",
          "name": "proposalsCount",
          "type": "uint256"
        }
      ],
      "stateMutability": "view",
      "type": "function"
    },
    {
      "inputs": [],
      "name": "getVotingsCount",
      "outputs": [
        {
          "internalType": "uint256",
          "name": "",
          "type": "uint256"
        }
      ],
      "stateMutability": "view",
      "type": "function"
    },
    {
      "inputs": [
        {
          "internalType": "uint256",
          "name": "_id",
          "type": "uint256"
        }
      ],
      "name": "getAllProposals",
      "outputs": [
        {
          "internalType": "string[]",
          "name": "",
          "type": "string[]"
        }
      ],
      "stateMutability": "view",
      "type": "function"
    },
    {
      "inputs": [
        {
          "internalType": "bytes32[]",
          "name": "proposals",
          "type": "bytes32[]"
        },
        {
          "internalType": "uint256",
          "name": "votingDurationSeconds",
          "type": "uint256"
        }
      ],
      "name": "createVoting",
      "outputs": [
        {
          "internalType": "uint256",
          "name": "",
          "type": "uint256"
        }
      ],
      "stateMutability": "nonpayable",
      "type": "function"
    },
    {
      "inputs": [
        {
          "internalType": "uint256",
          "name": "votingId",
          "type": "uint256"
        }
      ],
      "name": "endVoting",
      "outputs": [],
      "stateMutability": "nonpayable",
      "type": "function"
    },
    {
      "inputs": [
        {
          "internalType": "uint256",
          "name": "votingId",
          "type": "uint256"
        }
      ],
      "name": "getWinnerProposal",
      "outputs": [
        {
          "internalType": "string",
          "name": "",
          "type": "string"
        }
      ],
      "stateMutability": "view",
      "type": "function"
    },
    {
      "inputs": [
        {
          "internalType": "uint256",
          "name": "votingId",
          "type": "uint256"
        },
        {
          "internalType": "string",
          "name": "proposal",
          "type": "string"
        }
      ],
      "name": "vote",
      "outputs": [],
      "stateMutability": "nonpayable",
      "type": "function"
    }
  ],
  "bytecode": "0x60806040523480156200001157600080fd5b5060405162003073380380620030738339818101604052810190620000379190620003c9565b8282816003908051906020019062000051929190620002b0565b5080600490805190602001906200006a929190620002b0565b506012600560006101000a81548160ff021916908360ff16021790555050506200009b3382620000a460201b60201c565b5050506200060d565b600073ffffffffffffffffffffffffffffffffffffffff168273ffffffffffffffffffffffffffffffffffffffff16141562000117576040517f08c379a00000000000000000000000000000000000000000000000000000000081526004016200010e9062000508565b60405180910390fd5b6200012b600083836200025360201b60201c565b62000147816002546200025860201b620010091790919060201c565b600281905550620001a5816000808573ffffffffffffffffffffffffffffffffffffffff1673ffffffffffffffffffffffffffffffffffffffff168152602001908152602001600020546200025860201b620010091790919060201c565b6000808473ffffffffffffffffffffffffffffffffffffffff1673ffffffffffffffffffffffffffffffffffffffff168152602001908152602001600020819055508173ffffffffffffffffffffffffffffffffffffffff16600073ffffffffffffffffffffffffffffffffffffffff167fddf252ad1be2c89b69c2b068fc378daa952ba7f163c4a11628f55a4df523b3ef836040516200024791906200052a565b60405180910390a35050565b505050565b600080828401905083811015620002a6576040517f08c379a00000000000000000000000000000000000000000000000000000000081526004016200029d90620004e6565b60405180910390fd5b8091505092915050565b828054600181600116156101000203166002900490600052602060002090601f016020900481019282601f10620002f357805160ff191683800117855562000324565b8280016001018555821562000324579182015b828111156200032357825182559160200191906001019062000306565b5b50905062000333919062000337565b5090565b5b808211156200035257600081600090555060010162000338565b5090565b600082601f8301126200036857600080fd5b81516200037f620003798262000575565b62000547565b915080825260208301602083018583830111156200039c57600080fd5b620003a9838284620005bd565b50505092915050565b600081519050620003c381620005f3565b92915050565b600080600060608486031215620003df57600080fd5b600084015167ffffffffffffffff811115620003fa57600080fd5b620004088682870162000356565b935050602084015167ffffffffffffffff8111156200042657600080fd5b620004348682870162000356565b92505060406200044786828701620003b2565b9150509250925092565b600062000460601b83620005a2565b91507f536166654d6174683a206164646974696f6e206f766572666c6f7700000000006000830152602082019050919050565b6000620004a2601f83620005a2565b91507f45524332303a206d696e7420746f20746865207a65726f2061646472657373006000830152602082019050919050565b620004e081620005b3565b82525050565b60006020820190508181036000830152620005018162000451565b9050919050565b60006020820190508181036000830152620005238162000493565b9050919050565b6000602082019050620005416000830184620004d5565b92915050565b6000604051905081810181811067ffffffffffffffff821117156200056b57600080fd5b8060405250919050565b600067ffffffffffffffff8211156200058d57600080fd5b601f19601f8301169050602081019050919050565b600082825260208201905092915050565b6000819050919050565b60005b83811015620005dd578082015181840152602081019050620005c0565b83811115620005ed576000848401525b50505050565b620005fe81620005b3565b81146200060a57600080fd5b50565b612a56806200061d6000396000f3fe608060405234801561001057600080fd5b50600436106101165760003560e01c806395d89b41116100a2578063a9059cbb11610071578063a9059cbb1461031e578063bf8ca1aa1461034e578063c33a259c1461037e578063dae7c92c146103ae578063dd62ed3e146103cc57610116565b806395d89b411461026d578063a11191d81461028b578063a457c2d7146102bb578063a598d03c146102eb57610116565b806324108475116100e957806324108475146101b7578063313ce567146101d357806339509351146101f1578063649f89a51461022157806370a082311461023d57610116565b806306fdde031461011b578063095ea7b31461013957806318160ddd1461016957806323b872dd14610187575b600080fd5b6101236103fc565b6040516101309190612585565b60405180910390f35b610153600480360381019061014e9190611e81565b61049e565b6040516101609190612525565b60405180910390f35b6101716104bc565b60405161017e9190612767565b60405180910390f35b6101a1600480360381019061019c9190611e32565b6104c6565b6040516101ae9190612525565b60405180910390f35b6101d160048036038101906101cc9190611f3a565b61059f565b005b6101db6107f2565b6040516101e89190612782565b60405180910390f35b61020b60048036038101906102069190611e81565b610809565b6040516102189190612525565b60405180910390f35b61023b60048036038101906102369190611f11565b6108bc565b005b61025760048036038101906102529190611dcd565b61097c565b6040516102649190612767565b60405180910390f35b6102756109c4565b6040516102829190612585565b60405180910390f35b6102a560048036038101906102a09190611ebd565b610a66565b6040516102b29190612767565b60405180910390f35b6102d560048036038101906102d09190611e81565b610bf4565b6040516102e29190612525565b60405180910390f35b61030560048036038101906103009190611f11565b610cc1565b6040516103159493929190612540565b60405180910390f35b61033860048036038101906103339190611e81565b610d0b565b6040516103459190612525565b60405180910390f35b61036860048036038101906103639190611f11565b610d29565b6040516103759190612503565b60405180910390f35b61039860048036038101906103939190611f11565b610e8d565b6040516103a59190612585565b60405180910390f35b6103b6610f75565b6040516103c39190612767565b60405180910390f35b6103e660048036038101906103e19190611df6565b610f82565b6040516103f39190612767565b60405180910390f35b606060038054600181600116156101000203166002900480601f0160208091040260200160405190810160405280929190818152602001828054600181600116156101000203166002900480156104945780601f1061046957610100808354040283529160200191610494565b820191906000526020600020905b81548152906001019060200180831161047757829003601f168201915b5050505050905090565b60006104b26104ab61105e565b8484611066565b6001905092915050565b6000600254905090565b60006104d3848484611231565b610594846104df61105e565b61058f856040518060600160405280602881526020016129d460289139600160008b73ffffffffffffffffffffffffffffffffffffffff1673ffffffffffffffffffffffffffffffffffffffff168152602001908152602001600020600061054561105e565b73ffffffffffffffffffffffffffffffffffffffff1673ffffffffffffffffffffffffffffffffffffffff168152602001908152602001600020546114c69092919063ffffffff16565b611066565b600190509392505050565b816000600f82815481106105af57fe5b90600052602060002090600602019050600081600101541415610607576040517f08c379a00000000000000000000000000000000000000000000000000000000081526004016105fe906126c7565b60405180910390fd5b42816002015482600101540111156107a1576000600f858154811061062857fe5b906000526020600020906006020190508060050160003373ffffffffffffffffffffffffffffffffffffffff1673ffffffffffffffffffffffffffffffffffffffff16815260200190815260200160002060009054906101000a900460ff16156106c7576040517f08c379a00000000000000000000000000000000000000000000000000000000081526004016106be90612647565b60405180910390fd5b60006106d38286611521565b90508060020160009054906101000a900460ff16610726576040517f08c379a000000000000000000000000000000000000000000000000000000000815260040161071d906126e7565b60405180910390fd5b60018260050160003373ffffffffffffffffffffffffffffffffffffffff1673ffffffffffffffffffffffffffffffffffffffff16815260200190815260200160002060006101000a81548160ff0219169083151502179055506107893361097c565b816001016000828254019250508190555050506107ec565b6107aa8261162a565b60006107eb576040517f08c379a00000000000000000000000000000000000000000000000000000000081526004016107e290612627565b60405180910390fd5b5b50505050565b6000600560009054906101000a900460ff16905090565b60006108b261081661105e565b846108ad856001600061082761105e565b73ffffffffffffffffffffffffffffffffffffffff1673ffffffffffffffffffffffffffffffffffffffff16815260200190815260200160002060008973ffffffffffffffffffffffffffffffffffffffff1673ffffffffffffffffffffffffffffffffffffffff1681526020019081526020016000205461100990919063ffffffff16565b611066565b6001905092915050565b6000600f82815481106108cb57fe5b90600052602060002090600602019050600081600101541415610923576040517f08c379a000000000000000000000000000000000000000000000000000000000815260040161091a906126c7565b60405180910390fd5b8060010154816002015442031161096f576040517f08c379a000000000000000000000000000000000000000000000000000000000815260040161096690612667565b60405180910390fd5b6109788261162a565b5050565b60008060008373ffffffffffffffffffffffffffffffffffffffff1673ffffffffffffffffffffffffffffffffffffffff168152602001908152602001600020549050919050565b606060048054600181600116156101000203166002900480601f016020809104026020016040519081016040528092919081815260200182805460018160011615610100020316600290048015610a5c5780601f10610a3157610100808354040283529160200191610a5c565b820191906000526020600020905b815481529060010190602001808311610a3f57829003601f168201915b5050505050905090565b600080610a716104bc565b6064610a7c3361097c565b0281610a8457fe5b0490506005811015610acb576040517f08c379a0000000000000000000000000000000000000000000000000000000008152600401610ac2906125e7565b60405180910390fd5b600f600181600181540180825580915050039060005260206000209050506000600f6001600f805490500381548110610b0057fe5b906000526020600020906006020190506000816003018190555060008160000160006101000a81548160ff02191690836002811115610b3b57fe5b021790555042816001018190555083816002018190555060005b8551811015610be0576060610b7c878381518110610b6f57fe5b602002602001015161166d565b9050610b888382611824565b15610bc8576040517f08c379a0000000000000000000000000000000000000000000000000000000008152600401610bbf90612687565b60405180910390fd5b610bd28382611916565b508080600101915050610b55565b506001600f80549050039250505092915050565b6000610cb7610c0161105e565b84610cb2856040518060600160405280602581526020016129fc6025913960016000610c2b61105e565b73ffffffffffffffffffffffffffffffffffffffff1673ffffffffffffffffffffffffffffffffffffffff16815260200190815260200160002060008a73ffffffffffffffffffffffffffffffffffffffff1673ffffffffffffffffffffffffffffffffffffffff168152602001908152602001600020546114c69092919063ffffffff16565b611066565b6001905092915050565b600f8181548110610cce57fe5b90600052602060002090600602016000915090508060000160009054906101000a900460ff16908060010154908060020154908060030154905084565b6000610d1f610d1861105e565b8484611231565b6001905092915050565b60606000600f8381548110610d3a57fe5b906000526020600020906006020190506060816003015467ffffffffffffffff81118015610d6757600080fd5b50604051908082528060200260200182016040528015610d9b57816020015b6060815260200190600190039081610d865790505b50905060005b8260030154811015610e82578260040160008281526020019081526020016000206000018054600181600116156101000203166002900480601f016020809104026020016040519081016040528092919081815260200182805460018160011615610100020316600290048015610e595780601f10610e2e57610100808354040283529160200191610e59565b820191906000526020600020905b815481529060010190602001808311610e3c57829003601f168201915b5050505050828281518110610e6a57fe5b60200260200101819052508080600101915050610da1565b508092505050919050565b60606000600f8381548110610e9e57fe5b90600052602060002090600602019050600081600101541415610ef6576040517f08c379a0000000000000000000000000000000000000000000000000000000008152600401610eed90612727565b60405180910390fd5b60016002811115610f0357fe5b8160000160009054906101000a900460ff166002811115610f2057fe5b14610f60576040517f08c379a0000000000000000000000000000000000000000000000000000000008152600401610f57906126a7565b60405180910390fd5b610f69816119aa565b60000151915050919050565b6000600f80549050905090565b6000600160008473ffffffffffffffffffffffffffffffffffffffff1673ffffffffffffffffffffffffffffffffffffffff16815260200190815260200160002060008373ffffffffffffffffffffffffffffffffffffffff1673ffffffffffffffffffffffffffffffffffffffff16815260200190815260200160002054905092915050565b600080828401905083811015611054576040517f08c379a000000000000000000000000000000000000000000000000000000000815260040161104b90612607565b60405180910390fd5b8091505092915050565b600033905090565b600073ffffffffffffffffffffffffffffffffffffffff168373ffffffffffffffffffffffffffffffffffffffff1614156110d6576040517f08c379a00000000000000000000000000000000000000000000000000000000081526004016110cd90612747565b60405180910390fd5b600073ffffffffffffffffffffffffffffffffffffffff168273ffffffffffffffffffffffffffffffffffffffff161415611146576040517f08c379a000000000000000000000000000000000000000000000000000000000815260040161113d906125c7565b60405180910390fd5b80600160008573ffffffffffffffffffffffffffffffffffffffff1673ffffffffffffffffffffffffffffffffffffffff16815260200190815260200160002060008473ffffffffffffffffffffffffffffffffffffffff1673ffffffffffffffffffffffffffffffffffffffff168152602001908152602001600020819055508173ffffffffffffffffffffffffffffffffffffffff168373ffffffffffffffffffffffffffffffffffffffff167f8c5be1e5ebec7d5bd14f71427d1e84f3dd0314c0f7b2291e5b200ac8c7c3b925836040516112249190612767565b60405180910390a3505050565b600073ffffffffffffffffffffffffffffffffffffffff168373ffffffffffffffffffffffffffffffffffffffff1614156112a1576040517f08c379a000000000000000000000000000000000000000000000000000000000815260040161129890612707565b60405180910390fd5b600073ffffffffffffffffffffffffffffffffffffffff168273ffffffffffffffffffffffffffffffffffffffff161415611311576040517f08c379a0000000000000000000000000000000000000000000000000000000008152600401611308906125a7565b60405180910390fd5b61131c838383611bd7565b611387816040518060600160405280602681526020016129ae602691396000808773ffffffffffffffffffffffffffffffffffffffff1673ffffffffffffffffffffffffffffffffffffffff168152602001908152602001600020546114c69092919063ffffffff16565b6000808573ffffffffffffffffffffffffffffffffffffffff1673ffffffffffffffffffffffffffffffffffffffff1681526020019081526020016000208190555061141a816000808573ffffffffffffffffffffffffffffffffffffffff1673ffffffffffffffffffffffffffffffffffffffff1681526020019081526020016000205461100990919063ffffffff16565b6000808473ffffffffffffffffffffffffffffffffffffffff1673ffffffffffffffffffffffffffffffffffffffff168152602001908152602001600020819055508173ffffffffffffffffffffffffffffffffffffffff168373ffffffffffffffffffffffffffffffffffffffff167fddf252ad1be2c89b69c2b068fc378daa952ba7f163c4a11628f55a4df523b3ef836040516114b99190612767565b60405180910390a3505050565b600083831115829061150e576040517f08c379a00000000000000000000000000000000000000000000000000000000081526004016115059190612585565b60405180910390fd5b5060008385039050809150509392505050565b600080600090505b836003015481101561161e576115ef8460040160008381526020019081526020016000206000018054600181600116156101000203166002900480601f0160208091040260200160405190810160405280929190818152602001828054600181600116156101000203166002900480156115e45780601f106115b9576101008083540402835291602001916115e4565b820191906000526020600020905b8154815290600101906020018083116115c757829003601f168201915b505050505084611bdc565b1561161157836004016000828152602001908152602001600020915050611624565b8080600101915050611529565b50600c90505b92915050565b6001600f828154811061163957fe5b906000526020600020906006020160000160006101000a81548160ff0219169083600281111561166557fe5b021790555050565b606080602067ffffffffffffffff8111801561168857600080fd5b506040519080825280601f01601f1916602001820160405280156116bb5781602001600182028036833780820191505090505b5090506000805b602081101561175e5760008160080260020a8660001c0260001b9050600060f81b817effffffffffffffffffffffffffffffffffffffffffffffffffffffffffffff191614611750578084848151811061171857fe5b60200101907effffffffffffffffffffffffffffffffffffffffffffffffffffffffffffff1916908160001a90535082806001019350505b5080806001019150506116c2565b5060608167ffffffffffffffff8111801561177857600080fd5b506040519080825280601f01601f1916602001820160405280156117ab5781602001600182028036833780820191505090505b50905060005b82811015611818578381815181106117c557fe5b602001015160f81c60f81b8282815181106117dc57fe5b60200101907effffffffffffffffffffffffffffffffffffffffffffffffffffffffffffff1916908160001a90535080806001019150506117b1565b50809350505050919050565b6000805b836003015481101561190a576118ee8460040160008381526020019081526020016000206000018054600181600116156101000203166002900480601f0160208091040260200160405190810160405280929190818152602001828054600181600116156101000203166002900480156118e35780601f106118b8576101008083540402835291602001916118e3565b820191906000526020600020905b8154815290600101906020018083116118c657829003601f168201915b505050505084611bdc565b156118fd576001915050611910565b8080600101915050611828565b50600090505b92915050565b604051806060016040528082815260200160008152602001600115158152508260040160008460030160008154809291906001019190505581526020019081526020016000206000820151816000019080519060200190611978929190611bf7565b506020820151816001015560408201518160020160006101000a81548160ff0219169083151502179055509050505050565b6119b2611c77565b6119ba611c77565b826004016000808152602001908152602001600020604051806060016040529081600082018054600181600116156101000203166002900480601f016020809104026020016040519081016040528092919081815260200182805460018160011615610100020316600290048015611a735780601f10611a4857610100808354040283529160200191611a73565b820191906000526020600020905b815481529060010190602001808311611a5657829003601f168201915b50505050508152602001600182015481526020016002820160009054906101000a900460ff161515151581525050905060005b8360030154811015611bcd578160200151846004016000838152602001908152602001600020600101541115611bc057836004016000828152602001908152602001600020604051806060016040529081600082018054600181600116156101000203166002900480601f016020809104026020016040519081016040528092919081815260200182805460018160011615610100020316600290048015611b8f5780601f10611b6457610100808354040283529160200191611b8f565b820191906000526020600020905b815481529060010190602001808311611b7257829003601f168201915b50505050508152602001600182015481526020016002820160009054906101000a900460ff16151515158152505091505b8080600101915050611aa6565b5080915050919050565b505050565b60008180519060200120838051906020012014905092915050565b828054600181600116156101000203166002900490600052602060002090601f016020900481019282601f10611c3857805160ff1916838001178555611c66565b82800160010185558215611c66579182015b82811115611c65578251825591602001919060010190611c4a565b5b509050611c739190611c9a565b5090565b604051806060016040528060608152602001600081526020016000151581525090565b5b80821115611cb3576000816000905550600101611c9b565b5090565b600081359050611cc681612968565b92915050565b600082601f830112611cdd57600080fd5b8135611cf0611ceb826127ca565b61279d565b91508181835260208401935060208101905083856020840282011115611d1557600080fd5b60005b83811015611d455781611d2b8882611d4f565b845260208401935060208301925050600181019050611d18565b5050505092915050565b600081359050611d5e8161297f565b92915050565b600082601f830112611d7557600080fd5b8135611d88611d83826127f2565b61279d565b91508082526020830160208301858383011115611da457600080fd5b611daf838284612908565b50505092915050565b600081359050611dc781612996565b92915050565b600060208284031215611ddf57600080fd5b6000611ded84828501611cb7565b91505092915050565b60008060408385031215611e0957600080fd5b6000611e1785828601611cb7565b9250506020611e2885828601611cb7565b9150509250929050565b600080600060608486031215611e4757600080fd5b6000611e5586828701611cb7565b9350506020611e6686828701611cb7565b9250506040611e7786828701611db8565b9150509250925092565b60008060408385031215611e9457600080fd5b6000611ea285828601611cb7565b9250506020611eb385828601611db8565b9150509250929050565b60008060408385031215611ed057600080fd5b600083013567ffffffffffffffff811115611eea57600080fd5b611ef685828601611ccc565b9250506020611f0785828601611db8565b9150509250929050565b600060208284031215611f2357600080fd5b6000611f3184828501611db8565b91505092915050565b60008060408385031215611f4d57600080fd5b6000611f5b85828601611db8565b925050602083013567ffffffffffffffff811115611f7857600080fd5b611f8485828601611d64565b9150509250929050565b6000611f9a8383612035565b905092915050565b6000611fad8261282e565b611fb78185612851565b935083602082028501611fc98561281e565b8060005b858110156120055784840389528151611fe68582611f8e565b9450611ff183612844565b925060208a01995050600181019050611fcd565b50829750879550505050505092915050565b61202081612896565b82525050565b61202f816128f6565b82525050565b600061204082612839565b61204a8185612862565b935061205a818560208601612917565b6120638161294a565b840191505092915050565b600061207982612839565b6120838185612873565b9350612093818560208601612917565b61209c8161294a565b840191505092915050565b60006120b4602383612873565b91507f45524332303a207472616e7366657220746f20746865207a65726f206164647260008301527f65737300000000000000000000000000000000000000000000000000000000006020830152604082019050919050565b600061211a602283612873565b91507f45524332303a20617070726f766520746f20746865207a65726f20616464726560008301527f73730000000000000000000000000000000000000000000000000000000000006020830152604082019050919050565b6000612180602d83612873565b91507f546f6b656e206f776e6572206d7573742068617665203e3d203525206f66206260008301527f616e6b20656d697373696f6e2e000000000000000000000000000000000000006020830152604082019050919050565b60006121e6601b83612873565b91507f536166654d6174683a206164646974696f6e206f766572666c6f7700000000006000830152602082019050919050565b6000612226601283612873565b91507f566f74696e672069732066696e697368656400000000000000000000000000006000830152602082019050919050565b6000612266600d83612873565b91507f416c726561647920766f746564000000000000000000000000000000000000006000830152602082019050919050565b60006122a6601b83612873565b91507f566f74696e6720646f6573206e6f7420657870697265642079657400000000006000830152602082019050919050565b60006122e6601a83612873565b91507f4475626c69636174656420766f74696e672070726f706f73616c0000000000006000830152602082019050919050565b6000612326601d83612873565b91507f5468697320766f74696e67206973206469646e742066696e69736865640000006000830152602082019050919050565b6000612366601383612873565b91507f566f74696e67206973206e6f74206578697374000000000000000000000000006000830152602082019050919050565b60006123a6601b83612873565b91507f5468652070726f706f73616c20646f6573206e6f7420657869737400000000006000830152602082019050919050565b60006123e6602583612873565b91507f45524332303a207472616e736665722066726f6d20746865207a65726f20616460008301527f64726573730000000000000000000000000000000000000000000000000000006020830152604082019050919050565b600061244c601883612873565b91507f5468697320766f74696e6720646f65736e7420657869737400000000000000006000830152602082019050919050565b600061248c602483612873565b91507f45524332303a20617070726f76652066726f6d20746865207a65726f2061646460008301527f72657373000000000000000000000000000000000000000000000000000000006020830152604082019050919050565b6124ee816128df565b82525050565b6124fd816128e9565b82525050565b6000602082019050818103600083015261251d8184611fa2565b905092915050565b600060208201905061253a6000830184612017565b92915050565b60006080820190506125556000830187612026565b61256260208301866124e5565b61256f60408301856124e5565b61257c60608301846124e5565b95945050505050565b6000602082019050818103600083015261259f818461206e565b905092915050565b600060208201905081810360008301526125c0816120a7565b9050919050565b600060208201905081810360008301526125e08161210d565b9050919050565b6000602082019050818103600083015261260081612173565b9050919050565b60006020820190508181036000830152612620816121d9565b9050919050565b6000602082019050818103600083015261264081612219565b9050919050565b6000602082019050818103600083015261266081612259565b9050919050565b6000602082019050818103600083015261268081612299565b9050919050565b600060208201905081810360008301526126a0816122d9565b9050919050565b600060208201905081810360008301526126c081612319565b9050919050565b600060208201905081810360008301526126e081612359565b9050919050565b6000602082019050818103600083015261270081612399565b9050919050565b60006020820190508181036000830152612720816123d9565b9050919050565b600060208201905081810360008301526127408161243f565b9050919050565b600060208201905081810360008301526127608161247f565b9050919050565b600060208201905061277c60008301846124e5565b92915050565b600060208201905061279760008301846124f4565b92915050565b6000604051905081810181811067ffffffffffffffff821117156127c057600080fd5b8060405250919050565b600067ffffffffffffffff8211156127e157600080fd5b602082029050602081019050919050565b600067ffffffffffffffff82111561280957600080fd5b601f19601f8301169050602081019050919050565b6000819050602082019050919050565b600081519050919050565b600081519050919050565b6000602082019050919050565b600082825260208201905092915050565b600082825260208201905092915050565b600082825260208201905092915050565b600061288f826128bf565b9050919050565b60008115159050919050565b6000819050919050565b60008190506128ba8261295b565b919050565b600073ffffffffffffffffffffffffffffffffffffffff82169050919050565b6000819050919050565b600060ff82169050919050565b6000612901826128ac565b9050919050565b82818337600083830152505050565b60005b8381101561293557808201518184015260208101905061291a565b83811115612944576000848401525b50505050565b6000601f19601f8301169050919050565b6003811061296557fe5b50565b61297181612884565b811461297c57600080fd5b50565b612988816128a2565b811461299357600080fd5b50565b61299f816128df565b81146129aa57600080fd5b5056fe45524332303a207472616e7366657220616d6f756e7420657863656564732062616c616e636545524332303a207472616e7366657220616d6f756e74206578636565647320616c6c6f77616e636545524332303a2064656372656173656420616c6c6f77616e63652062656c6f77207a65726fa2646970667358221220d73a9302126d0d3f5979ff271879c7c931e60e66643dd62830b1f9245d40d72664736f6c63430007000033",
  "immutableReferences": {},
  "source": "// SPDX-License-Identifier: GPL-3.0\r\n\r\npragma solidity >=0.4.22 <0.9.0;\r\npragma experimental ABIEncoderV2;\r\n//pragma abicoder v2;\r\n\r\nimport \"@openzeppelin/contracts/token/ERC20/ERC20.sol\";\r\n\r\n\r\ncontract VoterERC20 is ERC20 {\r\n\r\n    Voting DEFAULT_VOTING;\r\n    \r\n    Proposal DEFAULT_PROPOSAL;\r\n    \r\n    Voting[] public votings;\r\n    \r\n    constructor(string memory _name, string memory _symbol, uint256 _totalSupply) ERC20(_name, _symbol) {\r\n        _mint(msg.sender, _totalSupply);\r\n    } \r\n    \r\n    modifier onlyValidTokenOwner() {\r\n        uint256 procentage = balanceOf(msg.sender) * 100 / totalSupply();\r\n       // console.log(\"Token owner has \", procentage, \"of bank emission\");\r\n        \r\n        require( procentage >= 5 ,\"Token owner must have >= 5% of bank emission.\");\r\n        _;\r\n    } \r\n    \r\n    modifier notExpiredVoting(uint votingId) {\r\n        Voting storage voting = votings[votingId];\r\n        \r\n        require(voting.creationTimestamp != 0, \"Voting is not exist\");\r\n        \r\n        if(voting.creationTimestamp + voting.duration > block.timestamp) {\r\n            _;    \r\n        }else { \r\n            finishVoting(votingId);\r\n            require(false, \"Voting is finished\");\r\n        }\r\n    } \r\n    \r\n    function getVotingsCount() public  view returns (uint256){\r\n        return votings.length;\r\n    }\r\n\r\n    function getAllProposals(uint256 _id) public view returns (string[] memory ){ \r\n        Voting storage  v = votings[_id];\r\n\r\n        string[] memory proposals = new string[](v.proposalsCount);\r\n\r\n        for(uint i= 0;i<v.proposalsCount;i++ ) { \r\n            proposals[i] = v.proposals[i].name;\r\n        }\r\n\r\n        return proposals;\r\n    }\r\n\r\n\r\n    function createVoting(bytes32[] memory proposals, uint256 votingDurationSeconds) public onlyValidTokenOwner returns (uint) {    \r\n        votings.push();\r\n        \r\n        Voting storage newVoting = votings[votings.length-1]; \r\n        \r\n        newVoting.proposalsCount = 0;\r\n        newVoting.votingStatus = VotingStatus.ACTIVE;\r\n        newVoting.creationTimestamp =  block.timestamp;\r\n        newVoting.duration =  votingDurationSeconds;\r\n        \r\n        for(uint i = 0; i < proposals.length; i++) { \r\n            string memory proposal = bytes32ToString(proposals[i]);\r\n            \r\n            require(!contains(newVoting, proposal), \"Dublicated voting proposal\");            \r\n            addProposal(newVoting, proposal);\r\n        }\r\n        \r\n        return votings.length - 1;\r\n    } \r\n    \r\n    function endVoting(uint votingId) public {    \r\n        Voting storage voting = votings[votingId];\r\n        \r\n        require(voting.creationTimestamp != 0, \"Voting is not exist\");\r\n        require(block.timestamp - voting.duration > voting.creationTimestamp, \"Voting does not expired yet\");\r\n        \r\n        finishVoting(votingId);\r\n    } \r\n    \r\n    function getWinnerProposal(uint votingId) public view returns (string memory){  \r\n        Voting storage voting = votings[votingId];\r\n        \r\n        require(voting.creationTimestamp != 0, \"This voting doesnt exist\");\r\n        require(voting.votingStatus == VotingStatus.FINISHED, \"This voting is didnt finished\");\r\n        \r\n        return calculateWinnerProposal(voting).name;\r\n    }\r\n    \r\n    function vote(uint votingId,string memory proposal) notExpiredVoting(votingId) public{  \r\n        Voting storage voting = votings[votingId];\r\n        \r\n        require(!voting.isVoted[msg.sender], \"Already voted\");\r\n        \r\n        Proposal storage p = getProposalByName(voting, proposal);\r\n        \r\n        require(p.isValue, \"The proposal does not exist\");\r\n        \r\n        voting.isVoted[msg.sender] = true;\r\n        p.votes += balanceOf(msg.sender);\r\n    } \r\n    \r\n    function addProposal(Voting storage voting, string memory proposal) private { \r\n        voting.proposals[voting.proposalsCount++] = Proposal(proposal, 0, true);\r\n    }\r\n    \r\n    function calculateWinnerProposal(Voting storage voting) private view returns (Proposal memory){\r\n        Proposal memory maxVote = voting.proposals[0];\r\n        \r\n        for (uint i = 0; i< voting.proposalsCount;i++){ \r\n            if(voting.proposals[i].votes > maxVote.votes) { \r\n                maxVote = voting.proposals[i];\r\n            }   \r\n        } \r\n        \r\n        return maxVote;\r\n    } \r\n    \r\n    function contains(Voting storage voting, string memory value) private view returns (bool){\r\n        for (uint i; i< voting.proposalsCount;i++){\r\n          if (strcmp(voting.proposals[i].name, value)) {\r\n            return true;  \r\n          }\r\n        }\r\n        \r\n        return false;\r\n    } \r\n    \r\n    function getProposalByName(Voting storage voting, string memory name) private view returns (Proposal storage){\r\n        for (uint i = 0; i< voting.proposalsCount;i++){\r\n          if (strcmp(voting.proposals[i].name, name)) {\r\n            return voting.proposals[i];\r\n          }\r\n        }\r\n        \r\n        return DEFAULT_PROPOSAL;\r\n    }\r\n    \r\n    function bytes32ToString(bytes32 x) private pure returns (string memory) {\r\n        bytes memory bytesString = new bytes(32);\r\n        uint charCount = 0;\r\n        \r\n        for (uint j = 0; j < 32; j++) {\r\n            byte char = byte(bytes32(uint(x) * 2 ** (8 * j)));\r\n            \r\n            if (char != 0) {\r\n                bytesString[charCount] = char;\r\n                charCount++;\r\n            }\r\n        }\r\n        \r\n        bytes memory bytesStringTrimmed = new bytes(charCount);\r\n        \r\n        for (uint j = 0; j < charCount; j++) {\r\n            bytesStringTrimmed[j] = bytesString[j];\r\n        }\r\n        \r\n        return string(bytesStringTrimmed);\r\n    }\r\n    \r\n    function finishVoting(uint votingId)  private { \r\n        votings[votingId].votingStatus = VotingStatus.FINISHED;\r\n    }  \r\n    \r\n    function strcmp(string memory a, string memory b) private pure returns (bool) { \r\n        return keccak256(bytes(a)) == keccak256(bytes(b));\r\n    } \r\n    \r\n    enum VotingStatus {ACTIVE, FINISHED, CANCELLED }\r\n    \r\n    struct Voting {\r\n        VotingStatus votingStatus;\r\n        uint256 creationTimestamp;\r\n        uint256 duration;\r\n        uint proposalsCount;\r\n        mapping(uint => Proposal) proposals;\r\n        mapping(address => bool) isVoted;\r\n    }\r\n    \r\n    struct Proposal {\r\n        string  name;  \r\n        uint256 votes;\r\n        bool isValue;\r\n    }\r\n}\r\n",
  "sourcePath": "D:/_projects/Solidity/voting/contracts/VotingERC20.sol",
  "compiler": {
    "name": "solc",
    "version": "0.7.0+commit.9e61f92b.Emscripten.clang"
  },
  "schemaVersion": "3.4.0",
  "updatedAt": "2021-06-01T12:50:53.498Z",
  "devdoc": {
    "kind": "dev",
    "methods": {
      "allowance(address,address)": {
        "details": "See {IERC20-allowance}."
      },
      "approve(address,uint256)": {
        "details": "See {IERC20-approve}. Requirements: - `spender` cannot be the zero address."
      },
      "balanceOf(address)": {
        "details": "See {IERC20-balanceOf}."
      },
      "decimals()": {
        "details": "Returns the number of decimals used to get its user representation. For example, if `decimals` equals `2`, a balance of `505` tokens should be displayed to a user as `5,05` (`505 / 10 ** 2`). Tokens usually opt for a value of 18, imitating the relationship between Ether and Wei. This is the value {ERC20} uses, unless {_setupDecimals} is called. NOTE: This information is only used for _display_ purposes: it in no way affects any of the arithmetic of the contract, including {IERC20-balanceOf} and {IERC20-transfer}."
      },
      "decreaseAllowance(address,uint256)": {
        "details": "Atomically decreases the allowance granted to `spender` by the caller. This is an alternative to {approve} that can be used as a mitigation for problems described in {IERC20-approve}. Emits an {Approval} event indicating the updated allowance. Requirements: - `spender` cannot be the zero address. - `spender` must have allowance for the caller of at least `subtractedValue`."
      },
      "increaseAllowance(address,uint256)": {
        "details": "Atomically increases the allowance granted to `spender` by the caller. This is an alternative to {approve} that can be used as a mitigation for problems described in {IERC20-approve}. Emits an {Approval} event indicating the updated allowance. Requirements: - `spender` cannot be the zero address."
      },
      "name()": {
        "details": "Returns the name of the token."
      },
      "symbol()": {
        "details": "Returns the symbol of the token, usually a shorter version of the name."
      },
      "totalSupply()": {
        "details": "See {IERC20-totalSupply}."
      },
      "transfer(address,uint256)": {
        "details": "See {IERC20-transfer}. Requirements: - `recipient` cannot be the zero address. - the caller must have a balance of at least `amount`."
      },
      "transferFrom(address,address,uint256)": {
        "details": "See {IERC20-transferFrom}. Emits an {Approval} event indicating the updated allowance. This is not required by the EIP. See the note at the beginning of {ERC20}; Requirements: - `sender` and `recipient` cannot be the zero address. - `sender` must have a balance of at least `amount`. - the caller must have allowance for ``sender``'s tokens of at least `amount`."
      }
    },
    "version": 1
  },
  "userdoc": {
    "kind": "user",
    "methods": {},
    "version": 1
  }
}