{
  "contractName": "VoterERC20",
  "abi": [
    {
      "inputs": [
        {
          "internalType": "string",
          "name": "_name",
          "type": "string"
        },
        {
          "internalType": "string",
          "name": "_symbol",
          "type": "string"
        },
        {
          "internalType": "uint256",
          "name": "_totalSupply",
          "type": "uint256"
        }
      ],
      "stateMutability": "nonpayable",
      "type": "constructor"
    },
    {
      "anonymous": false,
      "inputs": [
        {
          "indexed": true,
          "internalType": "address",
          "name": "owner",
          "type": "address"
        },
        {
          "indexed": true,
          "internalType": "address",
          "name": "spender",
          "type": "address"
        },
        {
          "indexed": false,
          "internalType": "uint256",
          "name": "value",
          "type": "uint256"
        }
      ],
      "name": "Approval",
      "type": "event"
    },
    {
      "anonymous": false,
      "inputs": [
        {
          "indexed": true,
          "internalType": "address",
          "name": "from",
          "type": "address"
        },
        {
          "indexed": true,
          "internalType": "address",
          "name": "to",
          "type": "address"
        },
        {
          "indexed": false,
          "internalType": "uint256",
          "name": "value",
          "type": "uint256"
        }
      ],
      "name": "Transfer",
      "type": "event"
    },
    {
      "inputs": [
        {
          "internalType": "address",
          "name": "owner",
          "type": "address"
        },
        {
          "internalType": "address",
          "name": "spender",
          "type": "address"
        }
      ],
      "name": "allowance",
      "outputs": [
        {
          "internalType": "uint256",
          "name": "",
          "type": "uint256"
        }
      ],
      "stateMutability": "view",
      "type": "function",
      "constant": true
    },
    {
      "inputs": [
        {
          "internalType": "address",
          "name": "spender",
          "type": "address"
        },
        {
          "internalType": "uint256",
          "name": "amount",
          "type": "uint256"
        }
      ],
      "name": "approve",
      "outputs": [
        {
          "internalType": "bool",
          "name": "",
          "type": "bool"
        }
      ],
      "stateMutability": "nonpayable",
      "type": "function"
    },
    {
      "inputs": [
        {
          "internalType": "address",
          "name": "account",
          "type": "address"
        }
      ],
      "name": "balanceOf",
      "outputs": [
        {
          "internalType": "uint256",
          "name": "",
          "type": "uint256"
        }
      ],
      "stateMutability": "view",
      "type": "function",
      "constant": true
    },
    {
      "inputs": [],
      "name": "decimals",
      "outputs": [
        {
          "internalType": "uint8",
          "name": "",
          "type": "uint8"
        }
      ],
      "stateMutability": "view",
      "type": "function",
      "constant": true
    },
    {
      "inputs": [
        {
          "internalType": "address",
          "name": "spender",
          "type": "address"
        },
        {
          "internalType": "uint256",
          "name": "subtractedValue",
          "type": "uint256"
        }
      ],
      "name": "decreaseAllowance",
      "outputs": [
        {
          "internalType": "bool",
          "name": "",
          "type": "bool"
        }
      ],
      "stateMutability": "nonpayable",
      "type": "function"
    },
    {
      "inputs": [
        {
          "internalType": "address",
          "name": "spender",
          "type": "address"
        },
        {
          "internalType": "uint256",
          "name": "addedValue",
          "type": "uint256"
        }
      ],
      "name": "increaseAllowance",
      "outputs": [
        {
          "internalType": "bool",
          "name": "",
          "type": "bool"
        }
      ],
      "stateMutability": "nonpayable",
      "type": "function"
    },
    {
      "inputs": [],
      "name": "name",
      "outputs": [
        {
          "internalType": "string",
          "name": "",
          "type": "string"
        }
      ],
      "stateMutability": "view",
      "type": "function",
      "constant": true
    },
    {
      "inputs": [],
      "name": "symbol",
      "outputs": [
        {
          "internalType": "string",
          "name": "",
          "type": "string"
        }
      ],
      "stateMutability": "view",
      "type": "function",
      "constant": true
    },
    {
      "inputs": [],
      "name": "totalSupply",
      "outputs": [
        {
          "internalType": "uint256",
          "name": "",
          "type": "uint256"
        }
      ],
      "stateMutability": "view",
      "type": "function",
      "constant": true
    },
    {
      "inputs": [
        {
          "internalType": "address",
          "name": "recipient",
          "type": "address"
        },
        {
          "internalType": "uint256",
          "name": "amount",
          "type": "uint256"
        }
      ],
      "name": "transfer",
      "outputs": [
        {
          "internalType": "bool",
          "name": "",
          "type": "bool"
        }
      ],
      "stateMutability": "nonpayable",
      "type": "function"
    },
    {
      "inputs": [
        {
          "internalType": "address",
          "name": "sender",
          "type": "address"
        },
        {
          "internalType": "address",
          "name": "recipient",
          "type": "address"
        },
        {
          "internalType": "uint256",
          "name": "amount",
          "type": "uint256"
        }
      ],
      "name": "transferFrom",
      "outputs": [
        {
          "internalType": "bool",
          "name": "",
          "type": "bool"
        }
      ],
      "stateMutability": "nonpayable",
      "type": "function"
    },
    {
      "inputs": [
        {
          "internalType": "uint256",
          "name": "",
          "type": "uint256"
        }
      ],
      "name": "votings",
      "outputs": [
        {
          "internalType": "enum VoterERC20.VotingStatus",
          "name": "votingStatus",
          "type": "uint8"
        },
        {
          "internalType": "uint256",
          "name": "creationTimestamp",
          "type": "uint256"
        },
        {
          "internalType": "uint256",
          "name": "duration",
          "type": "uint256"
        },
        {
          "internalType": "uint256",
          "name": "proposalsCount",
          "type": "uint256"
        }
      ],
      "stateMutability": "view",
      "type": "function",
      "constant": true
    },
    {
      "inputs": [],
      "name": "getVotingsCount",
      "outputs": [
        {
          "internalType": "uint256",
          "name": "",
          "type": "uint256"
        }
      ],
      "stateMutability": "view",
      "type": "function",
      "constant": true
    },
    {
      "inputs": [
        {
          "internalType": "bytes32[]",
          "name": "proposals",
          "type": "bytes32[]"
        },
        {
          "internalType": "uint256",
          "name": "votingDurationSeconds",
          "type": "uint256"
        }
      ],
      "name": "createVoting",
      "outputs": [
        {
          "internalType": "uint256",
          "name": "",
          "type": "uint256"
        }
      ],
      "stateMutability": "nonpayable",
      "type": "function"
    },
    {
      "inputs": [
        {
          "internalType": "uint256",
          "name": "votingId",
          "type": "uint256"
        }
      ],
      "name": "endVoting",
      "outputs": [],
      "stateMutability": "nonpayable",
      "type": "function"
    },
    {
      "inputs": [
        {
          "internalType": "uint256",
          "name": "votingId",
          "type": "uint256"
        }
      ],
      "name": "getWinnerProposal",
      "outputs": [
        {
          "internalType": "string",
          "name": "",
          "type": "string"
        }
      ],
      "stateMutability": "view",
      "type": "function",
      "constant": true
    },
    {
      "inputs": [
        {
          "internalType": "uint256",
          "name": "votingId",
          "type": "uint256"
        },
        {
          "internalType": "string",
          "name": "proposal",
          "type": "string"
        }
      ],
      "name": "vote",
      "outputs": [],
      "stateMutability": "nonpayable",
      "type": "function"
    }
  ],
  "bytecode": "0x60806040523480156200001157600080fd5b506040516200290638038062002906833981810160405260608110156200003757600080fd5b81019080805160405193929190846401000000008211156200005857600080fd5b838201915060208201858111156200006f57600080fd5b82518660018202830111640100000000821117156200008d57600080fd5b8083526020830192505050908051906020019080838360005b83811015620000c3578082015181840152602081019050620000a6565b50505050905090810190601f168015620000f15780820380516001836020036101000a031916815260200191505b50604052602001805160405193929190846401000000008211156200011557600080fd5b838201915060208201858111156200012c57600080fd5b82518660018202830111640100000000821117156200014a57600080fd5b8083526020830192505050908051906020019080838360005b838110156200018057808201518184015260208101905062000163565b50505050905090810190601f168015620001ae5780820380516001836020036101000a031916815260200191505b506040526020018051906020019092919050505082828160039080519060200190620001dc9291906200049b565b508060049080519060200190620001f59291906200049b565b506012600560006101000a81548160ff021916908360ff16021790555050506200022633826200022f60201b60201c565b50505062000541565b600073ffffffffffffffffffffffffffffffffffffffff168273ffffffffffffffffffffffffffffffffffffffff161415620002d3576040517f08c379a000000000000000000000000000000000000000000000000000000000815260040180806020018281038252601f8152602001807f45524332303a206d696e7420746f20746865207a65726f20616464726573730081525060200191505060405180910390fd5b620002e7600083836200040d60201b60201c565b62000303816002546200041260201b620014b31790919060201c565b60028190555062000361816000808573ffffffffffffffffffffffffffffffffffffffff1673ffffffffffffffffffffffffffffffffffffffff168152602001908152602001600020546200041260201b620014b31790919060201c565b6000808473ffffffffffffffffffffffffffffffffffffffff1673ffffffffffffffffffffffffffffffffffffffff168152602001908152602001600020819055508173ffffffffffffffffffffffffffffffffffffffff16600073ffffffffffffffffffffffffffffffffffffffff167fddf252ad1be2c89b69c2b068fc378daa952ba7f163c4a11628f55a4df523b3ef836040518082815260200191505060405180910390a35050565b505050565b60008082840190508381101562000491576040517f08c379a000000000000000000000000000000000000000000000000000000000815260040180806020018281038252601b8152602001807f536166654d6174683a206164646974696f6e206f766572666c6f77000000000081525060200191505060405180910390fd5b8091505092915050565b828054600181600116156101000203166002900490600052602060002090601f016020900481019282601f10620004de57805160ff19168380011785556200050f565b828001600101855582156200050f579182015b828111156200050e578251825591602001919060010190620004f1565b5b5090506200051e919062000522565b5090565b5b808211156200053d57600081600090555060010162000523565b5090565b6123b580620005516000396000f3fe608060405234801561001057600080fd5b506004361061010b5760003560e01c806370a08231116100a2578063a598d03c11610071578063a598d03c14610626578063a9059cbb14610688578063c33a259c146106ec578063dae7c92c14610793578063dd62ed3e146107b15761010b565b806370a082311461041157806395d89b4114610469578063a11191d8146104ec578063a457c2d7146105c25761010b565b806324108475116100de5780632410847514610299578063313ce5671461035e578063395093511461037f578063649f89a5146103e35761010b565b806306fdde0314610110578063095ea7b31461019357806318160ddd146101f757806323b872dd14610215575b600080fd5b610118610829565b6040518080602001828103825283818151815260200191508051906020019080838360005b8381101561015857808201518184015260208101905061013d565b50505050905090810190601f1680156101855780820380516001836020036101000a031916815260200191505b509250505060405180910390f35b6101df600480360360408110156101a957600080fd5b81019080803573ffffffffffffffffffffffffffffffffffffffff169060200190929190803590602001909291905050506108cb565b60405180821515815260200191505060405180910390f35b6101ff6108e9565b6040518082815260200191505060405180910390f35b6102816004803603606081101561022b57600080fd5b81019080803573ffffffffffffffffffffffffffffffffffffffff169060200190929190803573ffffffffffffffffffffffffffffffffffffffff169060200190929190803590602001909291905050506108f3565b60405180821515815260200191505060405180910390f35b61035c600480360360408110156102af57600080fd5b8101908080359060200190929190803590602001906401000000008111156102d657600080fd5b8201836020820111156102e857600080fd5b8035906020019184600183028401116401000000008311171561030a57600080fd5b91908080601f016020809104026020016040519081016040528093929190818152602001838380828437600081840152601f19601f8201169050808301925050505050505091929192905050506109cc565b005b610366610ceb565b604051808260ff16815260200191505060405180910390f35b6103cb6004803603604081101561039557600080fd5b81019080803573ffffffffffffffffffffffffffffffffffffffff16906020019092919080359060200190929190505050610d02565b60405180821515815260200191505060405180910390f35b61040f600480360360208110156103f957600080fd5b8101908080359060200190929190505050610db5565b005b6104536004803603602081101561042757600080fd5b81019080803573ffffffffffffffffffffffffffffffffffffffff169060200190929190505050610edb565b6040518082815260200191505060405180910390f35b610471610f23565b6040518080602001828103825283818151815260200191508051906020019080838360005b838110156104b1578082015181840152602081019050610496565b50505050905090810190601f1680156104de5780820380516001836020036101000a031916815260200191505b509250505060405180910390f35b6105ac6004803603604081101561050257600080fd5b810190808035906020019064010000000081111561051f57600080fd5b82018360208201111561053157600080fd5b8035906020019184602083028401116401000000008311171561055357600080fd5b919080806020026020016040519081016040528093929190818152602001838360200280828437600081840152601f19601f82011690508083019250505050505050919291929080359060200190929190505050610fc5565b6040518082815260200191505060405180910390f35b61060e600480360360408110156105d857600080fd5b81019080803573ffffffffffffffffffffffffffffffffffffffff1690602001909291908035906020019092919050505061119c565b60405180821515815260200191505060405180910390f35b6106526004803603602081101561063c57600080fd5b8101908080359060200190929190505050611269565b6040518085600281111561066257fe5b815260200184815260200183815260200182815260200194505050505060405180910390f35b6106d46004803603604081101561069e57600080fd5b81019080803573ffffffffffffffffffffffffffffffffffffffff169060200190929190803590602001909291905050506112b3565b60405180821515815260200191505060405180910390f35b6107186004803603602081101561070257600080fd5b81019080803590602001909291905050506112d1565b6040518080602001828103825283818151815260200191508051906020019080838360005b8381101561075857808201518184015260208101905061073d565b50505050905090810190601f1680156107855780820380516001836020036101000a031916815260200191505b509250505060405180910390f35b61079b61141f565b6040518082815260200191505060405180910390f35b610813600480360360408110156107c757600080fd5b81019080803573ffffffffffffffffffffffffffffffffffffffff169060200190929190803573ffffffffffffffffffffffffffffffffffffffff16906020019092919050505061142c565b6040518082815260200191505060405180910390f35b606060038054600181600116156101000203166002900480601f0160208091040260200160405190810160405280929190818152602001828054600181600116156101000203166002900480156108c15780601f10610896576101008083540402835291602001916108c1565b820191906000526020600020905b8154815290600101906020018083116108a457829003601f168201915b5050505050905090565b60006108df6108d861153b565b8484611543565b6001905092915050565b6000600254905090565b600061090084848461173a565b6109c18461090c61153b565b6109bc856040518060600160405280602881526020016122ea60289139600160008b73ffffffffffffffffffffffffffffffffffffffff1673ffffffffffffffffffffffffffffffffffffffff168152602001908152602001600020600061097261153b565b73ffffffffffffffffffffffffffffffffffffffff1673ffffffffffffffffffffffffffffffffffffffff168152602001908152602001600020546119fb9092919063ffffffff16565b611543565b600190509392505050565b816000600f82815481106109dc57fe5b90600052602060002090600602019050600081600101541415610a67576040517f08c379a00000000000000000000000000000000000000000000000000000000081526004018080602001828103825260138152602001807f566f74696e67206973206e6f742065786973740000000000000000000000000081525060200191505060405180910390fd5b4281600201548260010154011115610c67576000600f8581548110610a8857fe5b906000526020600020906006020190508060050160003373ffffffffffffffffffffffffffffffffffffffff1673ffffffffffffffffffffffffffffffffffffffff16815260200190815260200160002060009054906101000a900460ff1615610b5a576040517f08c379a000000000000000000000000000000000000000000000000000000000815260040180806020018281038252600d8152602001807f416c726561647920766f7465640000000000000000000000000000000000000081525060200191505060405180910390fd5b6000610b668286611abb565b90508060020160009054906101000a900460ff16610bec576040517f08c379a000000000000000000000000000000000000000000000000000000000815260040180806020018281038252601b8152602001807f5468652070726f706f73616c20646f6573206e6f74206578697374000000000081525060200191505060405180910390fd5b60018260050160003373ffffffffffffffffffffffffffffffffffffffff1673ffffffffffffffffffffffffffffffffffffffff16815260200190815260200160002060006101000a81548160ff021916908315150217905550610c4f33610edb565b81600101600082825401925050819055505050610ce5565b610c7082611bc4565b6000610ce4576040517f08c379a00000000000000000000000000000000000000000000000000000000081526004018080602001828103825260128152602001807f566f74696e672069732066696e6973686564000000000000000000000000000081525060200191505060405180910390fd5b5b50505050565b6000600560009054906101000a900460ff16905090565b6000610dab610d0f61153b565b84610da68560016000610d2061153b565b73ffffffffffffffffffffffffffffffffffffffff1673ffffffffffffffffffffffffffffffffffffffff16815260200190815260200160002060008973ffffffffffffffffffffffffffffffffffffffff1673ffffffffffffffffffffffffffffffffffffffff168152602001908152602001600020546114b390919063ffffffff16565b611543565b6001905092915050565b6000600f8281548110610dc457fe5b90600052602060002090600602019050600081600101541415610e4f576040517f08c379a00000000000000000000000000000000000000000000000000000000081526004018080602001828103825260138152602001807f566f74696e67206973206e6f742065786973740000000000000000000000000081525060200191505060405180910390fd5b80600101548160020154420311610ece576040517f08c379a000000000000000000000000000000000000000000000000000000000815260040180806020018281038252601b8152602001807f566f74696e6720646f6573206e6f74206578706972656420796574000000000081525060200191505060405180910390fd5b610ed782611bc4565b5050565b60008060008373ffffffffffffffffffffffffffffffffffffffff1673ffffffffffffffffffffffffffffffffffffffff168152602001908152602001600020549050919050565b606060048054600181600116156101000203166002900480601f016020809104026020016040519081016040528092919081815260200182805460018160011615610100020316600290048015610fbb5780601f10610f9057610100808354040283529160200191610fbb565b820191906000526020600020905b815481529060010190602001808311610f9e57829003601f168201915b5050505050905090565b600080610fd06108e9565b6064610fdb33610edb565b0281610fe357fe5b0490506005811015611040576040517f08c379a000000000000000000000000000000000000000000000000000000000815260040180806020018281038252602d815260200180612297602d913960400191505060405180910390fd5b600f600181600181540180825580915050039060005260206000209050506000600f6001600f80549050038154811061107557fe5b906000526020600020906006020190506000816003018190555060008160000160006101000a81548160ff021916908360028111156110b057fe5b021790555042816001018190555083816002018190555060005b85518110156111885760606110f18783815181106110e457fe5b6020026020010151611c07565b90506110fd8382611dbe565b15611170576040517f08c379a000000000000000000000000000000000000000000000000000000000815260040180806020018281038252601a8152602001807f4475626c69636174656420766f74696e672070726f706f73616c00000000000081525060200191505060405180910390fd5b61117a8382611eb0565b5080806001019150506110ca565b506001600f80549050039250505092915050565b600061125f6111a961153b565b8461125a8560405180606001604052806025815260200161235b60259139600160006111d361153b565b73ffffffffffffffffffffffffffffffffffffffff1673ffffffffffffffffffffffffffffffffffffffff16815260200190815260200160002060008a73ffffffffffffffffffffffffffffffffffffffff1673ffffffffffffffffffffffffffffffffffffffff168152602001908152602001600020546119fb9092919063ffffffff16565b611543565b6001905092915050565b600f818154811061127657fe5b90600052602060002090600602016000915090508060000160009054906101000a900460ff16908060010154908060020154908060030154905084565b60006112c76112c061153b565b848461173a565b6001905092915050565b60606000600f83815481106112e257fe5b9060005260206000209060060201905060008160010154141561136d576040517f08c379a00000000000000000000000000000000000000000000000000000000081526004018080602001828103825260188152602001807f5468697320766f74696e6720646f65736e74206578697374000000000000000081525060200191505060405180910390fd5b6001600281111561137a57fe5b8160000160009054906101000a900460ff16600281111561139757fe5b1461140a576040517f08c379a000000000000000000000000000000000000000000000000000000000815260040180806020018281038252601d8152602001807f5468697320766f74696e67206973206469646e742066696e697368656400000081525060200191505060405180910390fd5b61141381611f44565b60000151915050919050565b6000600f80549050905090565b6000600160008473ffffffffffffffffffffffffffffffffffffffff1673ffffffffffffffffffffffffffffffffffffffff16815260200190815260200160002060008373ffffffffffffffffffffffffffffffffffffffff1673ffffffffffffffffffffffffffffffffffffffff16815260200190815260200160002054905092915050565b600080828401905083811015611531576040517f08c379a000000000000000000000000000000000000000000000000000000000815260040180806020018281038252601b8152602001807f536166654d6174683a206164646974696f6e206f766572666c6f77000000000081525060200191505060405180910390fd5b8091505092915050565b600033905090565b600073ffffffffffffffffffffffffffffffffffffffff168373ffffffffffffffffffffffffffffffffffffffff1614156115c9576040517f08c379a00000000000000000000000000000000000000000000000000000000081526004018080602001828103825260248152602001806123376024913960400191505060405180910390fd5b600073ffffffffffffffffffffffffffffffffffffffff168273ffffffffffffffffffffffffffffffffffffffff16141561164f576040517f08c379a00000000000000000000000000000000000000000000000000000000081526004018080602001828103825260228152602001806122756022913960400191505060405180910390fd5b80600160008573ffffffffffffffffffffffffffffffffffffffff1673ffffffffffffffffffffffffffffffffffffffff16815260200190815260200160002060008473ffffffffffffffffffffffffffffffffffffffff1673ffffffffffffffffffffffffffffffffffffffff168152602001908152602001600020819055508173ffffffffffffffffffffffffffffffffffffffff168373ffffffffffffffffffffffffffffffffffffffff167f8c5be1e5ebec7d5bd14f71427d1e84f3dd0314c0f7b2291e5b200ac8c7c3b925836040518082815260200191505060405180910390a3505050565b600073ffffffffffffffffffffffffffffffffffffffff168373ffffffffffffffffffffffffffffffffffffffff1614156117c0576040517f08c379a00000000000000000000000000000000000000000000000000000000081526004018080602001828103825260258152602001806123126025913960400191505060405180910390fd5b600073ffffffffffffffffffffffffffffffffffffffff168273ffffffffffffffffffffffffffffffffffffffff161415611846576040517f08c379a00000000000000000000000000000000000000000000000000000000081526004018080602001828103825260238152602001806122526023913960400191505060405180910390fd5b611851838383612171565b6118bc816040518060600160405280602681526020016122c4602691396000808773ffffffffffffffffffffffffffffffffffffffff1673ffffffffffffffffffffffffffffffffffffffff168152602001908152602001600020546119fb9092919063ffffffff16565b6000808573ffffffffffffffffffffffffffffffffffffffff1673ffffffffffffffffffffffffffffffffffffffff1681526020019081526020016000208190555061194f816000808573ffffffffffffffffffffffffffffffffffffffff1673ffffffffffffffffffffffffffffffffffffffff168152602001908152602001600020546114b390919063ffffffff16565b6000808473ffffffffffffffffffffffffffffffffffffffff1673ffffffffffffffffffffffffffffffffffffffff168152602001908152602001600020819055508173ffffffffffffffffffffffffffffffffffffffff168373ffffffffffffffffffffffffffffffffffffffff167fddf252ad1be2c89b69c2b068fc378daa952ba7f163c4a11628f55a4df523b3ef836040518082815260200191505060405180910390a3505050565b6000838311158290611aa8576040517f08c379a00000000000000000000000000000000000000000000000000000000081526004018080602001828103825283818151815260200191508051906020019080838360005b83811015611a6d578082015181840152602081019050611a52565b50505050905090810190601f168015611a9a5780820380516001836020036101000a031916815260200191505b509250505060405180910390fd5b5060008385039050809150509392505050565b600080600090505b8360030154811015611bb857611b898460040160008381526020019081526020016000206000018054600181600116156101000203166002900480601f016020809104026020016040519081016040528092919081815260200182805460018160011615610100020316600290048015611b7e5780601f10611b5357610100808354040283529160200191611b7e565b820191906000526020600020905b815481529060010190602001808311611b6157829003601f168201915b505050505084612176565b15611bab57836004016000828152602001908152602001600020915050611bbe565b8080600101915050611ac3565b50600c90505b92915050565b6001600f8281548110611bd357fe5b906000526020600020906006020160000160006101000a81548160ff02191690836002811115611bff57fe5b021790555050565b606080602067ffffffffffffffff81118015611c2257600080fd5b506040519080825280601f01601f191660200182016040528015611c555781602001600182028036833780820191505090505b5090506000805b6020811015611cf85760008160080260020a8660001c0260001b9050600060f81b817effffffffffffffffffffffffffffffffffffffffffffffffffffffffffffff191614611cea5780848481518110611cb257fe5b60200101907effffffffffffffffffffffffffffffffffffffffffffffffffffffffffffff1916908160001a90535082806001019350505b508080600101915050611c5c565b5060608167ffffffffffffffff81118015611d1257600080fd5b506040519080825280601f01601f191660200182016040528015611d455781602001600182028036833780820191505090505b50905060005b82811015611db257838181518110611d5f57fe5b602001015160f81c60f81b828281518110611d7657fe5b60200101907effffffffffffffffffffffffffffffffffffffffffffffffffffffffffffff1916908160001a9053508080600101915050611d4b565b50809350505050919050565b6000805b8360030154811015611ea457611e888460040160008381526020019081526020016000206000018054600181600116156101000203166002900480601f016020809104026020016040519081016040528092919081815260200182805460018160011615610100020316600290048015611e7d5780601f10611e5257610100808354040283529160200191611e7d565b820191906000526020600020905b815481529060010190602001808311611e6057829003601f168201915b505050505084612176565b15611e97576001915050611eaa565b8080600101915050611dc2565b50600090505b92915050565b604051806060016040528082815260200160008152602001600115158152508260040160008460030160008154809291906001019190505581526020019081526020016000206000820151816000019080519060200190611f12929190612191565b506020820151816001015560408201518160020160006101000a81548160ff0219169083151502179055509050505050565b611f4c612211565b611f54612211565b826004016000808152602001908152602001600020604051806060016040529081600082018054600181600116156101000203166002900480601f01602080910402602001604051908101604052809291908181526020018280546001816001161561010002031660029004801561200d5780601f10611fe25761010080835404028352916020019161200d565b820191906000526020600020905b815481529060010190602001808311611ff057829003601f168201915b50505050508152602001600182015481526020016002820160009054906101000a900460ff161515151581525050905060005b836003015481101561216757816020015184600401600083815260200190815260200160002060010154111561215a57836004016000828152602001908152602001600020604051806060016040529081600082018054600181600116156101000203166002900480601f0160208091040260200160405190810160405280929190818152602001828054600181600116156101000203166002900480156121295780601f106120fe57610100808354040283529160200191612129565b820191906000526020600020905b81548152906001019060200180831161210c57829003601f168201915b50505050508152602001600182015481526020016002820160009054906101000a900460ff16151515158152505091505b8080600101915050612040565b5080915050919050565b505050565b60008180519060200120838051906020012014905092915050565b828054600181600116156101000203166002900490600052602060002090601f016020900481019282601f106121d257805160ff1916838001178555612200565b82800160010185558215612200579182015b828111156121ff5782518255916020019190600101906121e4565b5b50905061220d9190612234565b5090565b604051806060016040528060608152602001600081526020016000151581525090565b5b8082111561224d576000816000905550600101612235565b509056fe45524332303a207472616e7366657220746f20746865207a65726f206164647265737345524332303a20617070726f766520746f20746865207a65726f2061646472657373546f6b656e206f776e6572206d7573742068617665203e3d203525206f662062616e6b20656d697373696f6e2e45524332303a207472616e7366657220616d6f756e7420657863656564732062616c616e636545524332303a207472616e7366657220616d6f756e74206578636565647320616c6c6f77616e636545524332303a207472616e736665722066726f6d20746865207a65726f206164647265737345524332303a20617070726f76652066726f6d20746865207a65726f206164647265737345524332303a2064656372656173656420616c6c6f77616e63652062656c6f77207a65726fa264697066735822122024f8622054d076ca68ccdace40a98377935e79d73211146e7cabe67eba7ee6cf64736f6c63430007000033",
  "immutableReferences": {},
  "source": "// SPDX-License-Identifier: GPL-3.0\r\n\r\npragma solidity >=0.4.22 <0.9.0;\r\n//pragma abicoder v2;\r\n\r\nimport \"@openzeppelin/contracts/token/ERC20/ERC20.sol\";\r\n\r\n\r\ncontract VoterERC20 is ERC20 {\r\n\r\n    Voting DEFAULT_VOTING;\r\n    \r\n    Proposal DEFAULT_PROPOSAL;\r\n    \r\n    Voting[] public votings;\r\n    \r\n    constructor(string memory _name, string memory _symbol, uint256 _totalSupply) ERC20(_name, _symbol) {\r\n        _mint(msg.sender, _totalSupply);\r\n    } \r\n    \r\n    modifier onlyValidTokenOwner() {\r\n        uint256 procentage = balanceOf(msg.sender) * 100 / totalSupply();\r\n       // console.log(\"Token owner has \", procentage, \"of bank emission\");\r\n        \r\n        require( procentage >= 5 ,\"Token owner must have >= 5% of bank emission.\");\r\n        _;\r\n    } \r\n    \r\n    modifier notExpiredVoting(uint votingId) {\r\n        Voting storage voting = votings[votingId];\r\n        \r\n        require(voting.creationTimestamp != 0, \"Voting is not exist\");\r\n        \r\n        if(voting.creationTimestamp + voting.duration > block.timestamp) {\r\n            _;    \r\n        }else { \r\n            finishVoting(votingId);\r\n            require(false, \"Voting is finished\");\r\n        }\r\n    } \r\n    \r\n    function getVotingsCount() public  view returns (uint256){\r\n        return votings.length;\r\n    }\r\n\r\n    function createVoting(bytes32[] memory proposals, uint256 votingDurationSeconds) public onlyValidTokenOwner returns (uint) {    \r\n        votings.push();\r\n        \r\n        Voting storage newVoting = votings[votings.length-1]; \r\n        \r\n        newVoting.proposalsCount = 0;\r\n        newVoting.votingStatus = VotingStatus.ACTIVE;\r\n        newVoting.creationTimestamp =  block.timestamp;\r\n        newVoting.duration =  votingDurationSeconds;\r\n        \r\n        for(uint i = 0; i < proposals.length; i++) { \r\n            string memory proposal = bytes32ToString(proposals[i]);\r\n            \r\n            require(!contains(newVoting, proposal), \"Dublicated voting proposal\");            \r\n            addProposal(newVoting, proposal);\r\n        }\r\n        \r\n        return votings.length - 1;\r\n    } \r\n    \r\n    function endVoting(uint votingId) public {    \r\n        Voting storage voting = votings[votingId];\r\n        \r\n        require(voting.creationTimestamp != 0, \"Voting is not exist\");\r\n        require(block.timestamp - voting.duration > voting.creationTimestamp, \"Voting does not expired yet\");\r\n        \r\n        finishVoting(votingId);\r\n    } \r\n    \r\n    function getWinnerProposal(uint votingId) public view returns (string memory){  \r\n        Voting storage voting = votings[votingId];\r\n        \r\n        require(voting.creationTimestamp != 0, \"This voting doesnt exist\");\r\n        require(voting.votingStatus == VotingStatus.FINISHED, \"This voting is didnt finished\");\r\n        \r\n        return calculateWinnerProposal(voting).name;\r\n    }\r\n    \r\n    function vote(uint votingId,string memory proposal) notExpiredVoting(votingId) public{  \r\n        Voting storage voting = votings[votingId];\r\n        \r\n        require(!voting.isVoted[msg.sender], \"Already voted\");\r\n        \r\n        Proposal storage p = getProposalByName(voting, proposal);\r\n        \r\n        require(p.isValue, \"The proposal does not exist\");\r\n        \r\n        voting.isVoted[msg.sender] = true;\r\n        p.votes += balanceOf(msg.sender);\r\n    } \r\n    \r\n    function addProposal(Voting storage voting, string memory proposal) private { \r\n        voting.proposals[voting.proposalsCount++] = Proposal(proposal, 0, true);\r\n    }\r\n    \r\n    function calculateWinnerProposal(Voting storage voting) private view returns (Proposal memory){\r\n        Proposal memory maxVote = voting.proposals[0];\r\n        \r\n        for (uint i = 0; i< voting.proposalsCount;i++){ \r\n            if(voting.proposals[i].votes > maxVote.votes) { \r\n                maxVote = voting.proposals[i];\r\n            }   \r\n        } \r\n        \r\n        return maxVote;\r\n    } \r\n    \r\n    function contains(Voting storage voting, string memory value) private view returns (bool){\r\n        for (uint i; i< voting.proposalsCount;i++){\r\n          if (strcmp(voting.proposals[i].name, value)) {\r\n            return true;  \r\n          }\r\n        }\r\n        \r\n        return false;\r\n    } \r\n    \r\n    function getProposalByName(Voting storage voting, string memory name) private view returns (Proposal storage){\r\n        for (uint i = 0; i< voting.proposalsCount;i++){\r\n          if (strcmp(voting.proposals[i].name, name)) {\r\n            return voting.proposals[i];\r\n          }\r\n        }\r\n        \r\n        return DEFAULT_PROPOSAL;\r\n    }\r\n    \r\n    function bytes32ToString(bytes32 x) private pure returns (string memory) {\r\n        bytes memory bytesString = new bytes(32);\r\n        uint charCount = 0;\r\n        \r\n        for (uint j = 0; j < 32; j++) {\r\n            byte char = byte(bytes32(uint(x) * 2 ** (8 * j)));\r\n            \r\n            if (char != 0) {\r\n                bytesString[charCount] = char;\r\n                charCount++;\r\n            }\r\n        }\r\n        \r\n        bytes memory bytesStringTrimmed = new bytes(charCount);\r\n        \r\n        for (uint j = 0; j < charCount; j++) {\r\n            bytesStringTrimmed[j] = bytesString[j];\r\n        }\r\n        \r\n        return string(bytesStringTrimmed);\r\n    }\r\n    \r\n    function finishVoting(uint votingId)  private { \r\n        votings[votingId].votingStatus = VotingStatus.FINISHED;\r\n    }  \r\n    \r\n    function strcmp(string memory a, string memory b) private pure returns (bool) { \r\n        return keccak256(bytes(a)) == keccak256(bytes(b));\r\n    } \r\n    \r\n    enum VotingStatus {ACTIVE, FINISHED, CANCELLED }\r\n    \r\n    struct Voting {\r\n        VotingStatus votingStatus;\r\n        uint256 creationTimestamp;\r\n        uint256 duration;\r\n        uint proposalsCount;\r\n        mapping(uint => Proposal) proposals;\r\n        mapping(address => bool) isVoted;\r\n    }\r\n    \r\n    struct Proposal {\r\n        string  name;  \r\n        uint256 votes;\r\n        bool isValue;\r\n    }\r\n}\r\n",
  "sourcePath": "D:/_projects/Solidity/voting/contracts/VotingERC20.sol",
  "compiler": {
    "name": "solc",
    "version": "0.7.0+commit.9e61f92b.Emscripten.clang"
  },
  "schemaVersion": "3.4.0",
  "updatedAt": "2021-06-01T11:01:20.337Z",
  "networkType": "ethereum",
  "devdoc": {
    "kind": "dev",
    "methods": {
      "allowance(address,address)": {
        "details": "See {IERC20-allowance}."
      },
      "approve(address,uint256)": {
        "details": "See {IERC20-approve}. Requirements: - `spender` cannot be the zero address."
      },
      "balanceOf(address)": {
        "details": "See {IERC20-balanceOf}."
      },
      "decimals()": {
        "details": "Returns the number of decimals used to get its user representation. For example, if `decimals` equals `2`, a balance of `505` tokens should be displayed to a user as `5,05` (`505 / 10 ** 2`). Tokens usually opt for a value of 18, imitating the relationship between Ether and Wei. This is the value {ERC20} uses, unless {_setupDecimals} is called. NOTE: This information is only used for _display_ purposes: it in no way affects any of the arithmetic of the contract, including {IERC20-balanceOf} and {IERC20-transfer}."
      },
      "decreaseAllowance(address,uint256)": {
        "details": "Atomically decreases the allowance granted to `spender` by the caller. This is an alternative to {approve} that can be used as a mitigation for problems described in {IERC20-approve}. Emits an {Approval} event indicating the updated allowance. Requirements: - `spender` cannot be the zero address. - `spender` must have allowance for the caller of at least `subtractedValue`."
      },
      "increaseAllowance(address,uint256)": {
        "details": "Atomically increases the allowance granted to `spender` by the caller. This is an alternative to {approve} that can be used as a mitigation for problems described in {IERC20-approve}. Emits an {Approval} event indicating the updated allowance. Requirements: - `spender` cannot be the zero address."
      },
      "name()": {
        "details": "Returns the name of the token."
      },
      "symbol()": {
        "details": "Returns the symbol of the token, usually a shorter version of the name."
      },
      "totalSupply()": {
        "details": "See {IERC20-totalSupply}."
      },
      "transfer(address,uint256)": {
        "details": "See {IERC20-transfer}. Requirements: - `recipient` cannot be the zero address. - the caller must have a balance of at least `amount`."
      },
      "transferFrom(address,address,uint256)": {
        "details": "See {IERC20-transferFrom}. Emits an {Approval} event indicating the updated allowance. This is not required by the EIP. See the note at the beginning of {ERC20}; Requirements: - `sender` and `recipient` cannot be the zero address. - `sender` must have a balance of at least `amount`. - the caller must have allowance for ``sender``'s tokens of at least `amount`."
      }
    },
    "version": 1
  },
  "userdoc": {
    "kind": "user",
    "methods": {},
    "version": 1
  }
}